:020000040800F2
:10000000D006002009010008551A0008FD18000854
:10001000511A0008A50700083D3C00080000000038
:10002000000000000000000000000000291E000881
:10003000A907000800000000A91B00084D380008AF
:100040002301000823010008230100082301000800
:100050002301000823010008AD0700082301000860
:1000600023010008230100082301000823010008E0
:1000700023010008230100082301000823010008D0
:1000800023010008230100082301000823010008C0
:1000900023010008230100082301000823010008B0
:1000A00000000000230100082301000823010008CC
:1000B0002301000829390008230100082301000852
:1000C0002301000823010008230100082301000880
:1000D0002301000823010008230100082301000870
:1000E000C5070008230100082301000823010008B8
:1000F00023010008DFF80CD000F042FB0048004765
:1001000045400008D00600200648804706480047C2
:10011000FEE7FEE7FEE7FEE7FEE7FEE7FEE7FEE7B7
:10012000FEE7FEE7C5380008F500000840EA0103D5
:100130009B0703D009E008C9121F08C0042AFAD29D
:1001400003E011F8013B00F8013B521EF9D2704761
:10015000D2B201E000F8012B491EFBD27047002209
:10016000F6E710B513460A4604461946FFF7F0FFB6
:10017000204610BD30B505460020034600E05B1C5C
:10018000934205D2EC5CC85C201A01D1002CF6D158
:1001900030BD2DE9FE4F804681EA0300C00F0C46BA
:1001A000009021F0004123F00045B8EB0200A94186
:1001B00005D24046214690461C460B46024623F097
:1001C0000040104347D0270DC7F30A00C3F30A517C
:1001D0000290401A019040286BDAC3F3130040F4F8
:1001E000801B0098924620B10023D2EB030A63EBF8
:1001F0000B0B01985946C0F14002504600F0D6F969
:1002000006460D4650465946019A00F0EEF910EBAD
:1002100008006141002487EA115284EAE7731A4317
:1002200040D0009A62B3019A012A4FEA075215DCC6
:10023000001B61EB02014FF0004202EA0752CDE9D8
:100240000042001C41F5801132462B4600F0EEF9C9
:1002500003B0BDE8F08F40462146F9E7001B61EB93
:100260000201001C41F5801300185B412018A2F523
:10027000001747EB030140EAD570B6196D4111E054
:100280006D084FEA360645EAC0754FEA0752001B73
:1002900061EB0201001C41F5801149084FEA300072
:1002A0000019514132462B4603B0BDE8F04F00F033
:1002B000AEB90098012240000023D0EB020263EBAC
:1002C000E073009821464FEAE074B8EB000061EB60
:1002D0000401E9E783F000435BE781F0004158E760
:1002E0002DE9FE4F81EA030404F0004421F00041AF
:1002F00000944FF0000B23F0004350EA01045ED05D
:1003000052EA03045BD0C3F30A54C1F30A552C44E8
:10031000A4F2F3340194A0FB0254C1F3130141F49D
:100320008011C3F3130343F4801301FB024400FB69
:10033000034E840A970A44EA815447EA8357A4FB90
:10034000076802958D0A05FB07854FEA932C04FB8D
:100350000C542705029D4FEA065847EA1637B5EBBD
:1003600008056EEB070C870E920E47EA811742EAEA
:100370008312A7FB0201B6EB0B0164EB00042B0D0B
:1003800043EA0C335E1844EB1C50DA465146E7FB57
:100390000201C5F313044FEA0B3343EA14534FEA47
:1003A0000432019C43EA0603A4F10C040294009C6D
:1003B000CDE900B400F03AF903B0BDE8F08F0020B9
:1003C0000146F9E72DE9F04D81EA030404F0004B02
:1003D00021F0004514464FF0000A23F0004150EA96
:1003E000050220D054EA01021DD0C5F30A57024687
:1003F000C5F31303C1F31300C1F30A5640F480158B
:1004000043F48013A7EB0608101BD64608F2FD380C
:1004100073EB050002D308F1010801E092185B417B
:10042000B8F1000F03DA00200146BDE8F08D00208E
:100430004FF48011064684460EE0171B73EB050748
:1004400005D3121B63EB050306434CEA010C490874
:100450004FEA300092185B4150EA0107EDD152EAB1
:10046000030012D082EA040083EA0501084305D0A4
:10047000101BAB4106D20122002306E000224FF000
:10048000004302E06FF0010253101AEB06004CEB40
:10049000085110EB0A0041EB0B01BDE8F04D00F0F4
:1004A000B6B80EB5C10F80EAE0700844CA07002153
:1004B00040F233438DE80E000A460B4600F0B6F8D2
:1004C00003B000BD0EB540F2334102910021CDE9E9
:1004D00000110A460B4600F0A9F803B000BD70B544
:1004E000C1F30A5201F000450024C1F3130140F2A8
:1004F000FF3341F480119A4201DA002070BD40F2CE
:1005000033439A42A2F2334203DC524200F05DF8D8
:1005100000E090402C43F1D0404270BDC1F30A523C
:1005200010B5C1F3130140F2FF3341F480119A4238
:1005300001DA002010BD40F233439A42A2F2334266
:1005400003DC524200F041F810BD904010BD0000A5
:1005500030B5041E71F1000404DB4FF0004440424A
:1005600064EB0101141E73F1000405DB1C464FF01F
:100570000043524263EB0403994208BF904230BDEE
:1005800030B50B46014600202022012409E021FA63
:1005900002F59D4205D303FA02F5491B04FA02F560
:1005A0002844151EA2F10102F1DC30BD202A04DB33
:1005B000203A00FA02F1002070479140C2F1200376
:1005C00020FA03F3194390407047202A04DB203AB5
:1005D00021FA02F00021704721FA02F3D040C2F163
:1005E00020029140084319467047202A06DBCB17AA
:1005F000203A41FA02F043EAE07306E041FA02F3DE
:10060000D040C2F12002914008431946704710B50E
:10061000141E73F1000408DA401C41F10001921825
:100620005B411A4301D120F0010010BD2DE9F04DCE
:1006300092469B4611B1B1FA81F202E0B0FA80F223
:1006400020329046FFF7B2FF04460F4640EA0A0008
:1006500041EA0B0153465A46084313D0114653EA68
:10066000010019D0C8F140025046FFF7AEFF054621
:100670000E46504659464246FFF798FF084305D0BC
:10068000012004E020463946BDE8F08D00200543F6
:1006900046EAE0762C4337430A986305E40AA0EB68
:1006A00008000022FD0A44EA47540A3002D500201F
:1006B0000146E9E7010510196941DDE9084500191E
:1006C0006941BDE8F04DA2E72DE9F041054621F072
:1006D00000400C46284309D0C4F30A5040F233418D
:1006E000884205DD28462146BDE8F0812846FBE723
:1006F00040F2FE31884210DC0CDB4FEA043040EA65
:10070000155050EA053105D0104804F0004101436E
:100710000020E9E700200146E6E7A0F23340464228
:10072000C6F1400228462146FFF740FF07468846AB
:10073000284621463246FFF748FF43463A46FFF730
:1007400066FF3246BDE8F041FFF730BF0000F03FE2
:1007500030B5041E71F1000404DB4FF00044404248
:1007600064EB0101141E73F1000405DB1C464FF01D
:100770000043524263EB04038B4208BF824230BD08
:10078000064C074D06E0E06840F0010394E80700DE
:1007900098471034AC42F6D3FFF7B0FC5043000842
:1007A0007043000800BFFEE77047000010B5044921
:1007B000096808688047012000F03EF810BD00007D
:1007C0003C00002010B54FF4806000F035F810BDFB
:1007D000704700000246002111E00B4850F831003C
:1007E00090420AD8084B481C53F83000904204D974
:1007F000184600EBC10000797047481CC1B21529AA
:10080000EBD300BFFEE700004C42000870B5044681
:1008100000F016F906462546681C10B10448006829
:10082000054400BF00F00CF9801BA842FAD370BD4C
:10083000140000207047000010B50446044800680A
:10084000204020B1024804602046FFF7F3FF10BDAE
:100850001404014078B50346002200240020CAE0B9
:10086000012696400D6805EA0604002C71D04D68FB
:10087000022D02D04D68122D13D1D60803F12005A8
:1008800055F826005507EE0E0F25B540A84356072C
:10089000F60E0D69B5402843D60803F1200545F84A
:1008A0002600186856000325B540A8430D7905F0C9
:1008B00003055600B540284318604D68012D08D047
:1008C0004D68022D05D04D68112D02D04D68122DB6
:1008D00013D1986856000325B540A8435600CD684B
:1008E000B54028439860586801259540A8430D7984
:1008F000C5F30015954028435860D8685600032575
:10090000B540A84356008D68B5402843D8604D686F
:1009100005F08055B5F1805F6CD100BF394D2D6871
:1009200045F00105374E356035462D6805F0010567
:10093000009500BF00BF344D960855F82600950776
:100940002E0F0F25B540A843304DAB4202D10025F4
:1009500015E04FE02E4DAB4201D101250FE02D4DAA
:10096000AB4201D102250AE02B4DAB4201D1032558
:1009700005E02A4DAB4201D1042500E0052596078C
:10098000360FB5402843204D960845F82600244DE3
:100990002868A0434D6805F48035B5F5803F00D147
:1009A00020431F4D28602D1D2868A0434D6805F485
:1009B0000035B5F5003F00D12043194D2D1D2860AD
:1009C0002D1D2868A0434D6805F48015B5F5801FDE
:1009D00000D12043124D083528602D1D2868A04302
:1009E0004D6805F40015B5F5001F00D120430C4DEE
:1009F0000C352860521C0D68D540002D7FF430AFB7
:100A000078BD00002038024008000140000002408C
:100A10000004024000080240000C024000100240A6
:100A20000004014042690A4012B10A04826100E0F8
:100A3000816170470AB1816101E00B0483617047F5
:100A400001480068704700000C000020034800685F
:100A50000349096808440149086070470C000020F8
:100A60001400002010B50024032000F0B3F800208B
:100A700000F008F808B1012401E000F02FF820464A
:100A800010BD000070B50446002511480068D8B1BB
:100A90000F4800684FF47A71B1FBF0F00D49096816
:100AA000B1FBF0F6304600F098FE58B9102C07D292
:100AB00000222146501E00F04FF80748046004E071
:100AC000012502E0012500E00125284670BD000057
:100AD00014000020180000201000002008B500BFFE
:100AE0001448006840F00040124908600846006859
:100AF00000F00040009000BF00BF00BF081F00686A
:100B000040F00100091F08600846006800F001007D
:100B1000009000BF00BF00BF081D006840F080507B
:100B2000091D08600846006800F08050009000BF72
:100B300000BF08BD2438024001460846002809DBF2
:100B400000F01F0301229A4043099B0003F1E023B8
:100B5000C3F8002100BF70472DE9F05F80460D46C5
:100B60001646002703F07CF8074639462A463346E6
:100B700001F00700C0F1070ABAF1040F02D94FF0E3
:100B8000040A01E0C0F1070AD14600F1040ABAF1F3
:100B9000070F02D24FF0000A01E0A0F1030AD44689
:100BA0004FF0010A0AFA09FAAAF1010A0AEA020A4E
:100BB0000AFA0CFA4FF0010B0BFA0CFBABF1010B2C
:100BC0000BEA030B4AEA0B042146404603F050F8B7
:100BD000BDE8F09F00BF00F00702064B19684FF612
:100BE000FF031940044B0B4343EA0221014B1960F8
:100BF00000BF70470CED00E00000FA052DE9F04160
:100C000004460D4614B90120BDE8F0817E48006815
:100C100000F00100A84218D200BF012D05D17A488A
:100C2000006840F00400784908607748006820F0C8
:100C3000010028437449086000BF0846006800F0BE
:100C40000100A84201D00120DEE7207800F0020078
:100C5000022807D16D48006820F0F000A168084321
:100C60006A490860207800F0010000287FD06068A1
:100C7000022807D165480838006800F40030F8B948
:100C80000120C1E76068032807D160480838006880
:100C900000F00070A0B90120B6E76068012807D114
:100CA0005A480838006800F0020048B90120ABE754
:100CB00056480838006800F4007008B90120A3E71E
:100CC0005248006820F00300616808434F490860FB
:100CD000FFF7B6FE06466068022810D108E0FFF76D
:100CE000AFFE801B41F28831884201D903208BE797
:100CF0004648006800F00C000828F0D137E0606832
:100D0000032810D108E0FFF79BFE801B41F28831D9
:100D1000884201D9032077E73C48006800F00C00C6
:100D20000C28F0D123E06068012810D108E0FFF71B
:100D300087FE801B41F28831884201D9032063E796
:100D40003248006800F00C000428F0D10FE008E001
:100D5000FFF776FE801B41F28831884201D90320DB
:100D600052E72A48006800F00C000028F0D126481D
:100D7000006800F00100A84218D900BF012D05D17C
:100D80002148006840F004001F4908601E480068C0
:100D900020F0010028431C49086000BF0846006895
:100DA00000F00100A84201D001202DE7207800F0DA
:100DB0000400042807D11548006820F4E060E168C9
:100DC000084312490860207800F00800082808D17C
:100DD0000E48006820F46050216940EAC1000B49C8
:100DE000086000F041F809490968C1F30311084A95
:100DF000515CC8400749086007480068FFF742FE99
:100E00000746384600E70000003C02400838024030
:100E1000014200081800002010000020014800686E
:100E2000704700001800002000B5FFF7F7FF0449E5
:100E30000968C1F30221034A515CC84000BD0000AB
:100E4000083802401142000800B5FFF7E7FF0449E7
:100E50000968C1F3C221034A515CC84000BD0000CB
:100E60000838024011420008F0B51A4E316801F00E
:100E70000C0616B3042E04D0082E04D00C2E1BD161
:100E800003E0154823E0154821E0154EC1F38347E0
:100E9000F25DC1F38156731C0E4E366806F480363F
:100EA00026B10E4E5643B6FBF3F403E00A4E56430A
:100EB000B6FBF3F420460AE000BF064E361F366844
:100EC000C6F342356E1C0127B740F80300BF00BFD0
:100ED000F0BD0000083802400024F40000127A003F
:100EE000F84100082DE9F843044614B90120BDE893
:100EF000F883FE48006800F00C06FC48006800F427
:100F00008037207800F00100002875D0082E04D02A
:100F10000C2E0ED1B7F5803F0BD1F448083800688D
:100F200000F40030002867D06068002864D10120F8
:100F3000DDE700BF6068012808D1EC480838006888
:100F400040F48030E949083908602DE0606868B9EC
:100F5000E6480838006820F48030E4490839086021
:100F60000846006820F4802008601DE060680528BD
:100F70000DD1DE480838006840F48020DB4908398C
:100F800008600846006840F4803008600CE0D748EC
:100F90000838006820F48030D449083908600846D1
:100FA000006820F48020086000BF606890B1FFF7FF
:100FB00047FD054606E0FFF743FD401B642801D9C5
:100FC000032094E7C9480838006800F4003000287E
:100FD000F1D011E0FFF734FD054606E0FFF730FDE4
:100FE000401B642801D9032081E7C0480838006805
:100FF00000F400300028F1D1207800F0020002282F
:1010000053D1042E02D00C2E17D1B7B9B7480838E7
:10101000006800F0020020B1E068012801D0012042
:1010200065E7B248001F006820F4F850216940EAE3
:101030000120AE49091F086037E0E06800B30120D5
:10104000AB490860FFF7FCFC054606E0FFF7F8FC3B
:10105000401B022801D9032049E7A448083800684A
:1010600000F002000028F1D0A048001F006820F422
:10107000F850216940EA01209C49091F086014E0EA
:1010800000209B490860FFF7DBFC054606E0FFF700
:10109000D7FC401B022801D9032028E793480838D1
:1010A000006800F002000028F1D1207800F0100064
:1010B000102871D1F6BB8D480838006800F4007024
:1010C00018B1A06908B9012011E78849091F206AF1
:1010D000096801F46041884219D9206A00F066FD70
:1010E00008B1012003E78148001F006820F4604038
:1010F000216A08437D49091F0860217F7B48001F42
:10110000006861F31F607949091F08601AE0774899
:10111000001F006820F46040216A08437349091FDA
:101120000860217F7148001F006861F31F606F49EC
:10113000091F00E020E00860206A00F037FD08B1D8
:101140000120D4E60121206A01EB503101208840C2
:10115000C00366490968C1F30311664A515CC8407F
:101160006549086065480068FFF78CFC8046B8F167
:10117000000F42D04046BAE6A06948B301205C495E
:101180000862FFF75DFC054607E0FFF759FC401BCE
:10119000022802D90320AAE62FE054480838006844
:1011A00000F400700028F0D05048001F006820F4C0
:1011B0006040216A08434D49091F0860217F4B4860
:1011C000001F006861F31F604849091F086014E0B0
:1011D000002047490862FFF733FC054606E0FFF7A9
:1011E0002FFC401B022801D9032080E63F48083825
:1011F000006800F400700028F1D1207800F00800A9
:1012000008282CD16069A8B101203D490860FFF78A
:1012100017FC054606E0FFF713FC401B022801D926
:10122000032064E631482C30006800F002000028FA
:10123000F1D014E0002032490860FFF701FC0546B8
:1012400006E0FFF7FDFB401B022801D903204EE614
:1012500026482C30006800F002000028F1D12078E8
:1012600000F0040004286ED14FF000091F481C3024
:10127000006800F0805088B900BF1C481C3000682E
:1012800040F0805019491C3108600846006800F0A1
:101290008050009000BF00BF4FF00109194800685E
:1012A00000F48070B0B91748006840F480701549A8
:1012B0000860FFF7C5FB054606E0FFF7C1FB401BD2
:1012C000642801D9032012E60E48006800F48070FB
:1012D0000028F2D000BFA068012817D103482C30A5
:1012E000006840F4807001492C310DE0083802405C
:1012F00000004742014200081800002010000020B2
:101300008006474200700040086028E0A06858B995
:101310006648006820F480706449086008460068E8
:1013200020F4806008601AE0A06805280CD15F48AE
:10133000006840F480605D4908600846006840F439
:10134000807008600BE040E05848006820F480702E
:10135000564908600846006820F48060086000BFB5
:10136000A06898B1FFF76CFB054608E0FFF768FB43
:10137000401B41F28831884201D90320B7E54B4830
:10138000006800F400700028F0D012E0FFF758FB6E
:10139000054608E0FFF754FB401B41F288318842C4
:1013A00001D90320A3E54148006800F4007000283B
:1013B000F0D1B9F1010F07D13C481038006820F096
:1013C00080503A491039086000BF606AA8B30C2EFB
:1013D00052D0606A022839D1002035490866FFF7EB
:1013E0002FFB054606E0FFF72BFB401B022801D927
:1013F00003207CE52D483438006800F00070002898
:10140000F1D1D4E90A010843216B084327492C395B
:10141000096821F47D01084324492C390860012022
:1014200023490866FFF70CFB054607E0FFF708FBBA
:10143000401B022802D9032059E535E01B48343807
:10144000006800F000700028F0D02DE0002018495E
:101450000866FFF7F5FA054606E0FFF7F1FA401BCC
:10146000022801D9032042E510483438006800F012
:1014700000700028F1D117E0606A012800D136E53C
:101480000A482C38076807F48031A06A814209D1E4
:1014900007F47011E06A814204D107F44001206B27
:1014A000814201D0012022E5002020E534380240AD
:1014B0000000474210B504460CB9012010BD606A17
:1014C00000B900BF0021A16294F8510028B90020A2
:1014D00084F85000204600F02BF8022084F85100D8
:1014E0002068006820F0400021680860D4E901010C
:1014F0000843E16808432169084361690843218B77
:1015000001F400710843E1690843216A0843A16AB4
:101510000843216808600421A06901EA104021689D
:10152000486000206065012084F851000020C5E774
:1015300010B586B00446142101A8FEF710FE194923
:10154000206888422CD100BF1748006840F48040D2
:10155000154908600846006800F48040009000BF0C
:1015600000BF00BF10480838006840F002000E4974
:10157000083908600846006800F00200009000BFCB
:1015800000BF4FF4604001900220029000200390C1
:10159000032004900520059001A90448FFF75AF99B
:1015A00006B010BD0038004024380240000402405C
:1015B0002DE9FF5F0446884691461D460E9E012098
:1015C00002900020019000BF94F85000012803D140
:1015D000022004B0BDE8F09F012084F8500000BF55
:1015E000FFF72EFA074694F851B060680390AA46B8
:1015F000BBF1010F0BD00398B0F5827F04D1A06836
:1016000010B9BBF1040F02D002200190DBE0B8F169
:10161000000F03D0B9F1000F00D015B901200190DF
:10162000D1E094F85100042802D0052084F851003C
:1016300000206065C4F83890E587A587C4F830803D
:10164000E586A586206460642068006800F040009C
:10165000402805D02068006840F0400021680860FC
:10166000E068B0F5006F4AD1606810B1BAF1010FBF
:1016700009D1206B00882168C860206B801C206322
:10168000E08E401EE08633E02068806800F00200B3
:10169000022810D1E08E70B1029801280BD1206B86
:1016A00000882168C860206B801C2063E08E401E8B
:1016B000E086002002902068806800F0010068B198
:1016C000E08F58B12068C068A16B0880A06B801CB7
:1016D000A063E08F401EE08701200290FFF7B0F981
:1016E000C01BB04204D3701C10B1032001906AE00B
:1016F000E08E0028C8D1E08F0028C5D14AE060689C
:1017000010B1BAF1010F09D1206B0078216808737C
:10171000206B401C2063E08E401EE08634E0206891
:10172000806800F00200022810D1E08E70B10298AB
:1017300001280BD1206B007821680873206B401CB6
:101740002063E08E401EE0860020029020688068C2
:1017500000F0010068B1E08F58B12068C068A16B4B
:101760000870A06B401CA063E08F401EE087012042
:101770000290FFF765F9C01BB04201D3701C00B99D
:1017800016B9032001901EE0E08E0028C7D1E08F3B
:101790000028C4D13A463146204600F0C7FA20B1AD
:1017A00001200190202060650DE0A06850B900BFC5
:1017B000002000902068C068009020688068009039
:1017C00000BF00BF00BF012084F8510000BF00200F
:1017D00084F8500000BF0198FBE670B5044625462A
:1017E000681EB0F1807F01D301200FE0681E4FF02A
:1017F000E02148610F214FF0FF3002F039FA00205C
:101800004FF0E021886107200861002070BD10B50D
:1018100004460CB9012010BDA06900B100E000BF72
:1018200094F8390028B9002084F83800204600F0E8
:1018300027F8242084F839002068C06820F400507C
:101840002168C860204602F071F82068006920F421
:101850009040216808612068406920F02A002168D2
:1018600048612068C06840F400502168C8600020CA
:10187000E063202084F8390084F83A000020CAE7A9
:1018800010B586B00446142101A8FEF768FC18497B
:10189000206888422AD100BF1648006840F4804082
:1018A000144908600846006800F48040009000BFBA
:1018B00000BF00BF081F006840F00100091F08605A
:1018C0000846006800F00100009000BF00BF4FF420
:1018D000C060019002200290012003900320049038
:1018E0000720059001A90448FEF7B4FF06B010BD1B
:1018F00000380140203802400000024000BFFEE7EF
:1019000000B587B0142102A8FEF729FC00BF2D48BE
:10191000006840F004002B4908600846006800F0A9
:101920000400019000BF00BF00BF0846006840F0FF
:10193000200008600846006800F02000019000BF09
:1019400000BF00BF0846006840F00200086008467B
:10195000006800F00200019000BF00BF00BF084611
:10196000006840F0010008600846006800F00100CF
:10197000019000BF00BF002241F603011248FFF7AB
:1019800059F841F6030002900120039000200490D2
:10199000059002A90C48FEF75DFF4FF480600290AD
:1019A0000A4803900020049002A90748FEF752FF5E
:1019B000002202212820FFF7CFF82820FFF7BCF8EB
:1019C00007B000BD1C3802400004024000001110A6
:1019D00010B50F480F4908604FF48270486000212D
:1019E0000C488160C160022101610121416149020D
:1019F00081613021C16100210162416281620A215D
:101A0000C162FFF757FD08B1FEF7E2FE10BD00000E
:101A100000380040DC00002010B50B480B4908607E
:101A20004FF4E1304860002108488160C1600161E5
:101A30000C21416100218161C161FFF7E8FE08B11D
:101A4000FEF7C6FE10BD0000003801403401002042
:101A500000BFFEE770470000F8B504460D46164685
:101A60001F461549C86A8047144801881448FEF784
:101A700076FB12480580028821461148FEF756FB86
:101A800070B210490870104807702B463A4631462C
:101A90000EA0009402F0D4F8002201211948FEF7AC
:101AA000C9FF032218A10648FEF764FB0248416BF8
:101AB0004FF47A708847F8BDFC420008000000200F
:101AC0005C00002003000020040000200D0A2052CA
:101AD00078446F6E650D0A20727373693A25640D40
:101AE0000A20736E723A25640D0A2073697A653A8A
:101AF00025640D0A207061796C6F61643A25730D5D
:101B00000A000000000402406C65640010B503493F
:101B1000C86A804702A002F093F810BDFC4200089A
:101B200052784572726F72202072657472792072D9
:101B300065636976650D0A0010B50349C86A804778
:101B400002A002F07DF810BDFC4200085278544912
:101B50004D454F55542072657472792072656369E2
:101B600076650D0A0000000010B50349C86A804779
:101B700002A002F065F810BDFC4200085478446FE2
:101B80006E650D0A0000000010B50349C86A804761
:101B900002A002F055F810BDFC42000854785449E8
:101BA0004D454F55540D0A007047000018B50346C7
:101BB00000222548006800F0F00050BB22481C308D
:101BC000006800F0805020B12048006800F4C05147
:101BD00018E000BF1C481C30006840F080501A4CD0
:101BE0001C3420602046006800F08050009000BF48
:101BF00000BF1648006800F4C0512046006820F07D
:101C000080502060B1F5C05F03D1B3F5404F00D1E3
:101C1000012200BF012A05D10D48006840F00400F0
:101C20000B4C20600A48006820F001001043084C6B
:101C3000206000BF2046006800F00100904201D003
:101C4000012018BD0020FCE7083802400070004069
:101C5000003C02402DE9F05F092000F0ADFE824615
:101C6000062000F0A9FE4FEA004B072000F0A4FE7A
:101C70004BEA002B082000F09FFE4BEA0009484683
:101C8000FEF720FC074600221E4BFEF729FB054607
:101C9000FEF744FC04460021092001F093FD3B209F
:101CA00000F08AFE00F0BF0040F0400529463B20CE
:101CB00001F088FD00BF3B2000F07EFE00F0200018
:101CC0002028F8D0104800F09BFF3B2000F074FE65
:101CD00000F0BF0040F0400529463B2001F072FDB6
:101CE00000BF3B2000F068FE00F020002028F8D064
:101CF0005146092001F066FD204600F081FFBDE855
:101D0000F09F000080844E4000A1BC3301B582B03A
:101D10004FF47A70012301AA02A900900248FFF74C
:101D200047FC9DF804000EBDDC000020F8B5044619
:101D30000E4615466068B0F5827F0DD1334600220D
:101D400080212046009500F01BF8B8B1606D40F08E
:101D5000200060650320F8BD94F8510005280DD1DE
:101D60003346002201212046009500F009F828B1F1
:101D7000606D40F0200060650320ECE70020EAE79A
:101D80002DE9F04104460E4617461D46DDF8188041
:101D90003EE0681CD8B3FEF753FEA0EB0800A84253
:101DA00000D2A5BB2068406820F0E00021684860B0
:101DB0006068B0F5827F0DD1A068B0F5004F03D008
:101DC000A068B0F5806F05D12068006820F0400061
:101DD00021680860A06AB0F5005F0DD100BF2068DF
:101DE000006820F40050216808602068006840F412
:101DF00000502168086000BF012084F8510000BF36
:101E0000002084F8500000BF0320BDE8F081FFE708
:101E1000206880683040B04201D1012000E00020FD
:101E2000B842B6D10020F0E77047704770470146CE
:101E30000120704710B504462046FEF7E7FC10BDB0
:101E40000148007870470000740200202DE9F34F2C
:101E5000A1B00020209000BF00BF00BF00BF00BFA6
:101E600000BF00BF219810B101286FD16FE09649E3
:101E70008869FEF727FBCDE90C012298FEF722FBCB
:101E8000CDE90601302000F097FD20F0F90010B1F7
:101E900000208E4901E000200146CDE90401272001
:101EA00000F08AFD20F0F800401C8749898B084427
:101EB0000190FEF7F6FACDE902018348807F012800
:101EC00002D10021084601E0002180480A4603466D
:101ED000CDE90010DDE90201FEF75BF98046DDE99E
:101EE0000423FEF756F90646DDE90623FEF751F90D
:101EF00082468B46744890F82000012803D10020C8
:101F00004FF0804101E000200146064632460B4674
:101F100050465946FEF73DF900226D4BCDE90801C8
:101F2000FEF7DEF9CDE90A01DDE90C23FEF74AFAF6
:101F30000022684BCDE90E01FEF7D2F9CDE9100180
:101F400002F010F90446FEF7E9FA2090B6E000210D
:101F50000C460D465C48C06B072804D0082805D005
:101F6000092809D105E000245B4D05E000245B4D04
:101F700002E000245A4D00BF00BF534991F84020B1
:101F8000012101FA02F0FEF78CFA064632460B46B2
:101F900020462946FEF716FACDE91E0100204B49DE
:101FA000DDE91E23FEF70EFACDE91C014649B1F822
:101FB0004600FEF787FA064600224A4BFEF7E9F88C
:101FC0008046DDE91C23FEF78BF9CDE91A013E4975
:101FD00091F84510081DFEF764FACDE910013A4961
:101FE000096C8A00384991F84410002901DD02216A
:101FF00000E00021501AFEF765FACDE90E012299A2
:10200000CA003149096C042303FB11211C312E4AFB
:1020100092F84A20102303FB02122B4991F8481032
:1020200009B1142100E00021501AFEF74BFA824654
:10203000DDE90E23FEF7C6F9064601F019FF8046DA
:10204000DDE91023FEF74CF9CDE918010022134613
:10205000DDE91801FEF77CFA02D2DDE9180101E0A2
:1020600000200146064632460B4600201849FEF77E
:1020700090F8CDE91601DDE91C23DDE91601FEF734
:102080002FF9CDE91401DDE91423DDE91A01FEF78A
:1020900080F8CDE9120100220E4BDDE91201FEF7B6
:1020A0001FF90646104A114BFEF773F8804601F0FF
:1020B0004DFF8246FEF732FA209000BF00BF209805
:1020C00023B0BDE8F08F0000740200200000F03F54
:1020D0000000204000408F408084FE4080840E41FC
:1020E00080841E41000011402B8716D9CEF7EF3FA8
:1020F00070B505461648056001F062FB00F030F847
:1021000000F0B0FCFFF7A6FD002000F0FBFD114839
:1021100000F028F8002412E004EB44010E4A505C61
:1021200000F0B0FD04EB44020B4B1A44917804EB31
:1021300044021A44507801F045FB601CC4B2102CD4
:10214000EAD3002000F09EFD00200449087070BD15
:102150001C000020200000201C4200087402002007
:102160007047000001490860704700003C000020F3
:102170002DE9F04106460C4615460027304600F092
:1021800081FD204600F03CFD052000F0BBFD012054
:10219000FFF750FE304600F03DFC074601F0ECF83A
:1021A000AF4202DD0020BDE8F0810120FBE7000026
:1021B0002DE9F04F93B0002011908246F948007845
:1021C000012802D002287DD101E200F074FCF5481C
:1021D000407810B1012876D143E1F24890F8200010
:1021E000012871D13F2000F0E7FB11909DF84400D9
:1021F00000F0020002287DD00B213E2001F0E2FA1F
:1022000010213F2001F0DEFA00F055FCE54890F87F
:10221000220028B901F0D3FA0020E24908704FE00B
:102220000D2000F0C9FB40F0400421460D2001F0D4
:10223000C9FADC498869FEF745F9CDE9080127208C
:1022400000F0BAFB20F0F80B5846FEF72AF90022FE
:10225000D54BCDE90001FDF79CFF04460D46D14961
:10226000888BFEF72FF9064622462B46FDF791FF95
:102270000022CE4BCDE90201FDF78BFF0022CC4BB3
:10228000CDE90401FEF72CF8CDE90601DDE90823CC
:10229000FEF798F80022C74BCDE90A01FEF720F8B7
:1022A000CDE90C0101F0E4FD80460022C24BFDF7B0
:1022B00070FFCDE90E01FEF731F9109001F072FACE
:1022C000BE4802E0A1E17FE114E0006838B1BB48FC
:1022D0000068006918B1B949096808698047002099
:1022E000B04981F828000021AE4880F82910818685
:1022F00041866AE1AB48408E40BBAA48808E28BB2D
:10230000A848807F28B90121A648323000F079FB27
:1023100004E0322000F050FBA2494886A14A92F81E
:10232000323092F834209A1AD1B29E4A928EA44B3F
:10233000D01800F066FB9B48418E808E091A9948A0
:10234000808E084481B29748818616E0954A92F8BB
:10235000323092F834209A1AD1B2924A928E984B27
:10236000D01800F04EFB8F48418E808E091A8D48A0
:10237000808E084481B28B4881868A4890F822007A
:10238000002847D1874908708869FEF79BF8CDE996
:102390000801272000F010FB20F0F80B5846FEF74C
:1023A00080F806460022804BFDF7F3FECDE90001E0
:1023B0007C49888BFEF786F88046DDE90023FDF72F
:1023C000E8FE0022794BCDE90201FDF7E2FE002292
:1023D000774BCDE90401FDF783FFCDE90601DDE987
:1023E0000823FDF7EFFF04460022724BFDF778FF4C
:1023F000CDE90A0101F03CFD00226F4BCDE90C0153
:10240000FDF7C7FECDE90E01FEF788F8109001F048
:10241000C9F908E00D2000F0CFFA40F04004214651
:102420000D2001F0CFF900F046FB6448006868B168
:1024300062480068806848B15A4890F92A20418E65
:102440005E480068002384685D48A0470020554925
:1024500081F828000021534880F8291081864186A0
:10246000B3E000244021122001F0ACF9122000F06A
:10247000A3FA11909DF8440000F02000202818D104
:102480002021122001F09EF9464890F84E0010B924
:1024900000204449087000F00EFB4848006838B13D
:1024A00046480068006918B14449096808698047CE
:1024B0008BE0192000F080FA40B23A4981F85400CC
:1024C000084690F8540000F0800040B1084690F8AB
:1024D0005400C043401CC0F38504644204E031480A
:1024E00090F85400C0F385041A2000F065FA824683
:1024F000002C18DA2B4840683249884209D9AAF1E1
:102500009D0000EB2A10204401B22648A0F8561086
:102510001FE0AAF1A40000EB2A10204401B22148D8
:10252000A0F8561015E01F4840682649884208D98F
:10253000AAF19D0000EB2A1001B21A48A0F856102B
:1025400007E0AAF1A40000EB2A1001B21548A0F898
:102550005610132000F030FA124981F8580008464E
:1025600090F85810164800F04CFA0E4890F84E00BB
:1025700010B900200B49087000F09DFA0F48006860
:1025800078B10E480068806858B1064890F9543018
:10259000B0F9562090F85810084800688568084837
:1025A000A84712E0740200200000F03F0000244021
:1025B0000000204000408F40000010401C00002020
:1025C0007401002040DD4A1F00BF00BF1EE001F083
:1025D000F8F81048407838B1012804D108211220B9
:1025E00001F0F0F800BF00BF00200A4908700A4857
:1025F000006838B108480068006818B106490968E1
:102600000868804700BF00BF00E000BF00BF13B0F4
:10261000BDE8F08F740200201C00002010B55E4859
:102620000078012802D002287ED163E05A48407821
:1026300010B101285BD145E05748408E80B956481B
:10264000808E68B95448807F28B9012152483230C1
:1026500000F0D7F904E0322000F0AEF94E49488688
:102660004D48418E808E091A4B4890F836008142C1
:1026700010DD494A92F83610928E484BD01800F07F
:10268000C0F94548818E90F83600084481B242482E
:10269000818616E0404A92F8323092F834209A1A35
:1026A000D1B23D4A928E3D4BD01800F0AAF93A487B
:1026B000418E808E091A3848808E084481B236488F
:1026C000818615E000F0F7F98021122001F07AF8F8
:1026D0000020314908703248006838B1304800683D
:1026E000C06818B12E490968C868804700E000BF7B
:1026F00000BF4EE02848407810B1012845D133E0B2
:102700002548418E808E091A234890F8370081426F
:1027100012DD214A92F83710928E204BD01801F02A
:1027200073F81D48818E00E032E090F837000844CD
:1027300081B21948818616E0174A92F8323092F831
:1027400034209A1AD1B2144A928E144BD01801F048
:102750005BF81148418E808E091A0F48808E08441C
:1027600081B20D48818611E001F02BF800200A4962
:1027700008700B48006838B109480068406818B113
:10278000074909684868804700E000BF00BF00E0D3
:1027900000BF00BF10BD00007402002074010020C3
:1027A0001C0000202DE9FC4749480078012802D090
:1027B00002287CD160E04648407810B1012858D109
:1027C0003CE0434890F82800012836D1404890F872
:1027D000290090BB00F0F3FF01213D4880F829104B
:1027E000112000F0E9F84010404241B2384880F82A
:1027F0002A101C2000F0E0F882461B2000F0DCF8D4
:102800004AEA00294846FDF74CFE0746FDF767FEF9
:102810000446FDF746FE054600222E4BFDF760FDFF
:10282000CDE90001FDF75BFE2949C8620C2000F0EC
:10283000C3F84109264880F830101BE0244890F87E
:102840004B00012814D10221122000F0BBFF2248C6
:10285000006868B120480068406948B11C2000F059
:10286000ABF800F03F041C480068416920468847E7
:1028700000E000BF00BF27E01548407810B10128F4
:102880001ED100E01DE0124890F84B00012816D13F
:102890000221122000F096FF0F48006878B10E4820
:1028A0000068406958B11C2000F086F800E00AE09A
:1028B00000F03F040848006841692046884700E06E
:1028C00000BF00BF00E000BF00BFBDE8FC87000004
:1028D0007402002080844E401C00002010B519486E
:1028E000407810B1012829D100E028E0122000F042
:1028F00063F800F0010080B10521122000F062FFB2
:1029000011480068C8B1104800688069A8B10E4835
:1029100000688169012088470FE00421122000F03F
:1029200051FF0948006840B107480068806920B13C
:102930000548006881690020884700E000BF00BFAB
:1029400010BD0000740200201C00002009484078DF
:1029500010B101280AD108E0064890F8280018B9FB
:102960000120044981F8280001E000E000BF00BF19
:10297000704700007402002070B50025012000F0AF
:1029800081F9FF21112000F01DFF052000F0BAF9A8
:1029900000240BE00120FFF74DFA2C2000F00CF88A
:1029A00000F00100A0400543601CC4B2202CF1DB04
:1029B00000F0E2FC284670BD38B5044601226946A5
:1029C000204600F003F89DF8000038BD2DE9F041E5
:1029D00005460E461746002000F020FF05F07F0058
:1029E00000F02EFF002405E0002000F029FF305504
:1029F000601CC4B2BC42F7DB012000F00FFFBDE851
:102A0000F08170B504460D462A4621460020FFF7A6
:102A1000DDFF70BD70B50446002514B1012C17D13F
:102A200005E01120FFF7C8FF4010454213E00B48B6
:102A300040680B49884205D91B20FFF7BDFFA0F174
:102A40009D0504E01B20FFF7B7FFA0F1A40502E0FD
:102A50004FF0FF3500BF00BF284670BD7402002054
:102A600040DD4A1F00B585B014216846FDF777FBAD
:102A700000224FF400610848FDF7DCFF0120FDF75C
:102A8000C5FE0122D1020448FDF7D4FF0620FDF760
:102A9000BDFE05B000BD00000004024000B50246C6
:102AA00002EB82010123C3EB410188B241F61F41D1
:102AB00000F03BFF00BD704773B504460025454854
:102AC000407810B1012839D139E000214148818690
:102AD0009DF804104186807F20B9012101A800F0F3
:102AE00093FE04E09DF80410322000F06BFE9DF888
:102AF0000400002809DD9DF80400402805DC9DF84D
:102B00000410344880F8371009E09DF8042021466D
:102B10003148FDF70BFB20212E4880F837102D4857
:102B200090F83710204600F06FFE2A48818E90F80A
:102B30003700084481B227488186456A45E0254828
:102B400090F84D0001280DD13320FFF735FF00F03C
:102B5000BE063146332000F035FE19213B2000F03F
:102B600031FE0DE03320FFF727FF00F0BE00461CCA
:102B70003146332000F026FE1D213B2000F022FECE
:102B80009DF80410134880F858109DF80410222076
:102B900000F018FE00210E2000F014FE00210D2090
:102BA00000F010FE0120FFF707FF20F0F80020B929
:102BB00000F0F0FB0120FFF73DF99DF804102046DE
:102BC00000F022FE0348056D00BF00BF284600F05C
:102BD000EFFB7CBD740200207401002070470000F0
:102BE00000B506490978814207D00449087010B938
:102BF000FFF71CF901E0FFF718F900BD38000020CD
:102C00002DE9F04104460F4844602046FDF75AFC88
:102C1000054600220C4BFDF7D5FB0746FDF77EFC71
:102C20000446C4F30741062000F0CCFDC4F307219D
:102C3000072000F0C7FDE1B2082000F0C3FDBDE8A9
:102C4000F08100007402002080844E4070B504467C
:102C50000D46204600F016F814B1012C0DD107E006
:102C60000748807F18B92946322000F0ABFD04E008
:102C70002946232000F0A6FD00BF00BF70BD000064
:102C80007402002070B504461D484078A04200D16F
:102C900070BD1B484470407810B1012815D000BFAA
:102CA000002000F02FF80120FFF786FE00F07F05DE
:102CB0002946012000F086FD0021402000F082FD21
:102CC0003021412000F07EFD16E0002000F01AF8CF
:102CD0000120FFF771FE00F07F0040F080052946DB
:102CE000012000F06FFD0021402000F06BFD00216D
:102CF000412000F067FD00BF00BF00BFC8E7000033
:102D00007402002070B504461CB90120FFF768FF6B
:102D10000BE00020FFF764FF032C03D10120FFF735
:102D20005DFF02E00020FFF759FF0120FFF744FE9E
:102D300000F0F80040EA04052946012000F042FDB9
:102D400070BD00002DE9F04F93B004464FF000092C
:102D5000D148407810B1012830D130E0CE4890F809
:102D600022904020FFF728FE00F0030040F00C0501
:102D70002946402000F026FD4120FFF71DFE00F00F
:102D80003E0040F0C000451C2946412000F01AFDDD
:102D90003520FFF711FE00F03F01BF4880F83610E4
:102DA0001E210D2000F00EFD0020BB4981F82800F7
:102DB0000021B94880F8291081864186FCE0B64898
:102DC00090F84D00012810D13320FFF7F5FD00F0F9
:102DD000BE0040F04000451C2946332000F0F2FCC4
:102DE00019213B2000F0EEFC0DE03320FFF7E4FD5D
:102DF00000F0BE00451C2946332000F0E3FC1D21F5
:102E00003B2000F0DFFCA448C06B09287BD23120B6
:102E1000FFF7D2FD00F07F052946312000F0D2FCFB
:102E20000021302000F0CEFC9B48C06B092819D24D
:102E3000DFE800F005192D41556A7E83880048219E
:102E40002F2000F0BFFC94494868FDF73BFB074684
:102E50000022924BFDF79DF90546FDF75FFB824688
:102E6000FFF7CEFE73E044212F2000F0ABFC8A492F
:102E70004868FDF727FB07460022894BFDF789F9D3
:102E80000546FDF74BFB8246FFF7BAFE5FE04421A3
:102E90002F2000F097FC80494868FDF713FB074698
:102EA0000022804BFDF775F90546FDF737FB82469A
:102EB000FFF7A6FE4BE044212F2000F083FC76496B
:102EC0004868FDF7FFFA07460022774BFDF761F9E6
:102ED0000546FDF723FB8246FFF792FE37E04421CB
:102EE0002F2000F06FFC6C494868FDF7EBFA0746AD
:102EF00000226E4BFDF74DF90546FDF70FFB8246AC
:102F0000FFF77EFE23E023E044212F2000F05AFC4F
:102F100061494868FDF7D6FA05460022644BFDF783
:102F200038F90746FDF7FAFA8246FFF769FE0EE028
:102F300040212F2000F046FC09E040212F2000F026
:102F400041FC04E040212F2000F03CFC00BF08E0E1
:102F50003120FFF731FD40F080052946312000F097
:102F600031FC4D4890F84E9090F84B0001280DD15F
:102F70001D21112000F026FC4020FFF71DFD00F070
:102F800033052946402000F01DFC0CE01F211120D4
:102F900000F018FC4020FFF70FFD00F03F05294628
:102FA000402000F00FFC00210F2000F00BFC00215E
:102FB0000D2000F007FC00BF00BF4FF480713D48BA
:102FC000FDF7CDF801203449087014B12046FFF711
:102FD00065FD3148407800284DD10520FFF792FE6D
:102FE000B9F1000F51D12C498869FDF76BFACDE991
:102FF00008012720FFF7E0FC20F0F8000190FDF722
:1030000050FA054600222C4BFDF7C3F807468846C8
:103010002149888BFDF756FA82463A464346FDF72A
:10302000B8F80022254BCDE90201FDF7B2F80022E5
:10303000234BCDE90401FDF753F9CDE90601DDE9A4
:103040000823FDF7BFF900221E4BCDE90A01FDF769
:1030500047F9CDE90C0100F00BFF00221A4BCDE936
:103060000E01FDF796F8CDE91001FDF757FA129021
:1030700000F098FB09E0B9F1010F03D10520FFF73B
:1030800041FE02E00620FFF73DFE1220FFF794FC10
:1030900013B0BDE8F08F0000740200200082BE4033
:1030A000005AC4400082CE408057D4408084DE4025
:1030B000C058E440740100200000F03F00002440AC
:1030C0000000204000408F40000010402DE9FF4FDD
:1030D00085B00D4614469946DDF868B0DDE916A8BE
:1030E000159F139E0598FFF7CDFD059810B1012897
:1030F00060D160E09D48056184619C4912984861F7
:103100000846877780F81FA080F8208080F821B0DB
:103110001B9881F82200084686832046FDF7D2F9E5
:1031200002460B46CDE9000100209149FDF74AF91E
:10313000CDE90201FDF7F2F984B2210A022000F084
:1031400041FBE1B2032000F03DFB2846FDF742FBC6
:1031500001460390122000F035FB1298FDF73AFB70
:1031600001460390132000F02DFB310A252000F0CA
:1031700029FBF1B2262000F025FB012F04D1514696
:10318000322000F01FFB03E0FF21322000F01AFB89
:103190003020FFF711FC00F06F00012F01D100215A
:1031A00000E08021084340EA0810014603903020E7
:1031B00000F008FBD6E0022D01D900BFFEE7ED1DAF
:1031C0006A48C563046480F84590A0F8466080F8BA
:1031D000487080F849A080F84A806449189881F8BE
:1031E0004B00199881F84C00084680F84DB01B98A8
:1031F00081F84E000C2C01D90C2402E0062C00D2E0
:103200000624072D03D10B2C05D00C2C03D0082D40
:1032100006D10C2C04D10121544880F8441003E05D
:103220000021524880F844101D20FFF7C5FB002004
:1032300040EA051040EA49003843C0B20146039015
:103240001D2000F0BFFA1E20FFF7B6FB00F00800BB
:1032500040EA041040EA88000322149902EA21217E
:103260000843C0B2014603901E2000F0ABFA2620AE
:10327000FFF7A2FB00F0F7013C4890F8440041EA58
:10328000C000C0B201460390262000F09BFA1498BB
:10329000C1B21F2000F096FA310A202000F092FA05
:1032A000F1B2212000F08EFA012F03D151462220E5
:1032B00000F088FA2D4890F84B00012811D14420E5
:1032C000FFF77AFB00F07F0040F08000014603909A
:1032D000442000F077FA254890F84C10242000F0A4
:1032E00071FA092D0DD1214840682249884208D938
:1032F0000221362000F066FA64213A2000F062FADA
:103300000EE0092D08D10221362000F05BFA7F2162
:103310003A2000F057FA03E00321362000F052FA79
:10332000062C0FD13120FFF747FB00F0F800401DBD
:1033300001460390312000F045FA0C21372000F0BF
:1033400041FA0EE03120FFF737FB00F0F800C01C17
:1033500001460390312000F035FA0A21372000F0B1
:1033600031FA00BF00BF09B0BDE8F08F7402002041
:1033700080847E4140DD4A1F10B5FFF79CFB00F0C2
:1033800020FA0020FFF7BEFC00200149087010BDA4
:103390007402002010B5FFF78EFB00F012FA012036
:1033A000FFF7B0FC00200149087010BD7402002036
:1033B00070B504462A48407810B1012842D11CE07B
:1033C0004020FFF7F9FA00F0030040F0100529460D
:1033D000402000F0F7F94120FFF7EEFA00F03E053B
:1033E0002946412000F0EEF93520FFF7E5FA00F01C
:1033F0003F011B4880F8361024E0194890F84B0034
:1034000001280FD1F521112000F0DCF94020FFF751
:10341000D3FA00F0330040F040052946402000F088
:10342000D1F90EE0F721112000F0CCF94020FFF790
:10343000C3FA00F03F0040F040052946402000F06C
:10344000C1F900BF00BF0220054908702046FFF700
:1034500025FB0320FFF756FC1220FFF7ADFA70BDE5
:10346000740200202DE9FF4F85B00C4690461E46A1
:10347000DDE915AB149F129D4FF000090020049068
:103480000598FFF7FFFB0920FFF796FA81464D20CC
:10349000FFF792FA04904FF0800909F0800080282D
:1034A0002DD1112C05DD049800F0F800C01D04900A
:1034B00004E0049800F0F800001D0490049800F067
:1034C000070007280DD1052C00DA0524142C00DD97
:1034D000142409F0F000611F01F00F0140EA010916
:1034E0001CE0022C00DA0224112C00DD112409F06A
:1034F000F000A11E01F00F0140EA01090EE0B4F155
:10350000FF3F01DA4FF0FF340E2C00DD0E2409F0EE
:10351000F000611C01F00F0140EA01094946092051
:1035200000F050F94D20049900F04CF9059810B1C5
:1035300001285DD15DE087480472C0F80C80066107
:103540008561878380F81EA080F820B08149199892
:1035500081F821001A9848624046FCF7B3FF002228
:103560007D4BCDE90001FCF72DFFCDE90201FCF711
:10357000D5FF1FFA80F84FEA1821042000F022F945
:1035800008F0FF01052000F01DF92846FCF79AFF1E
:1035900002460B46CDE9000100207049FCF712FFFE
:1035A000CDE90201FCF7BAFF85B2290A022000F03A
:1035B00009F9E9B2032000F005F9390A252000F0E5
:1035C00001F9F9B2262000F0FDF83020FFF7F4F9F8
:1035D00000F06F00BAF1010F01D1002100E080215D
:1035E000084340EA0B1001460390302000F0EAF84F
:1035F000ACE0584880F83840022E01D900BFFEE701
:10360000F61D5448C66305645249139881F8450075
:103610000846A0F8467080F848A0179881F84B003B
:10362000189881F84C00084680F84AB0199881F83B
:103630004D001A9808650C2D01D90C2502E0062DC5
:1036400000D20625072E03D10B2D05D00C2D03D05B
:10365000082E06D10C2D04D101213E4880F84410DB
:1036600003E000213B4880F844103A4890F84B00B2
:10367000012811D14420FFF79FF900F07F0040F0AE
:10368000800001460390442000F09CF8314890F8F7
:103690004C10242000F096F81D20FFF78DF9002033
:1036A00040EA0611139841EA400040EA0A00C0B21D
:1036B000014603901D2000F085F81E20FFF77CF9DD
:1036C00000F00B0040EA051040EA8B00C0B2014652
:1036D00003901E2000F076F82620FFF76DF900F029
:1036E000F7011C4890F8440041EAC000C0B201460E
:1036F0000390262000F066F8390A202000F062F8D6
:10370000F9B2212000F05EF8062D0FD13120FFF72D
:1037100053F900F0F800401D01460390312000F0FD
:1037200051F80C21372000F04DF80EE03120FFF762
:1037300043F900F0F800C01C01460390312000F06E
:1037400041F80A21372000F03DF800BF00BF09B062
:10375000BDE8F08F7402002080844E4080847E415A
:1037600010B50F48407810B1012815D100E014E0E1
:10377000FA21112000F026F84020FFF71DF900F093
:103780003F042146402000F01DF803200449087042
:103790000720FFF7B7FA00E000BF00BF10BD000030
:1037A0007402002000B5024602EB82010123C3EB44
:1037B000410188B241F61F4100F0B7F800BD7047E3
:1037C0007047704713B50446012201A9204600F056
:1037D00001F81CBD2DE9F04105460E4617460020B4
:1037E00000F01CF845F0800000F02AF8002404E006
:1037F000305D00F025F8601CC4B2BC42F8DB01204B
:1038000000F00CF8BDE8F08170B504460D462A467C
:1038100021460020FFF7DEFF70BD000010B5044612
:103820002CB1012211030548FDF704F905E000223F
:103830004FF480510148FDF7FDF810BD000402402F
:1038400010B50446E0B2FEF761FA10BD10B5FDF701
:10385000FDF810BD00B593B0342106A8FCF77FFC3D
:10386000142101A8FCF77BFC1548006820F4C05027
:1038700040F4006012490860012006900790022081
:103880000F90C10310914FF4402111914105129105
:1038900006A8FDF727FB08B1FCF79AFF0F2001905F
:1038A000032002900020039004900590012101A8BC
:1038B000FDF7A4F908B1FCF78BFF13B000BD0000C1
:1038C000007000401448006840F48070124908609D
:1038D000114808300068114908400F490831086054
:1038E0000D4800680E4908400B490860084600680A
:1038F00020F48020086008480830006820F47D002B
:103900000549083108600020091D08604FF000607B
:103910000449086070470000003802400CC0FF886E
:10392000FEFFFEEE08ED00E07047704770B50446FC
:103930002168096921F44051E2681143226811614C
:103940002269A168114362691143E26941EA0205F3
:103950002168C96849F20C62914329432268D16009
:103960002168496921F44071A269114322685161BB
:10397000E169B1F5004F7DD1AF4A2168914255D13F
:10398000FDF762FA00EBC00101EB00116268520022
:10399000B1FBF2F16422B1FBF2F10A0100EBC001CC
:1039A00001EB001163685B00B1FBF3F100EBC003B6
:1039B00003EB001366687600B3FBF6F36426B3FBF3
:1039C000F6F303EBC30606EB0313A1EB83013223EB
:1039D00003EBC1016423B1FBF3F101F0F80102EB49
:1039E000410200EBC00101EB001163685B00B1FB19
:1039F000F3F100EBC00303EB001366687600B3FB42
:103A0000F6F36426B3FBF6F303EBC30606EB0313EE
:103A1000A1EB8301322303EBC1016423B1FBF3F17A
:103A200001F0070111442268916004E1FDF7FCF9FF
:103A300000EBC00101EB001162685200B1FBF2F132
:103A40006422B1FBF2F10A0100EBC00101EB0011AD
:103A500063685B00B1FBF3F100EBC00303EB001301
:103A600066687600B3FBF6F36426B3FBF6F303EB6C
:103A7000C30600E032E006EB0313A1EB830132231F
:103A800003EBC1016423B1FBF3F101F0F80102EB98
:103A9000410200EBC00101EB001163685B00B1FB68
:103AA000F3F100EBC00303EB001366687600B3FB91
:103AB000F6F36426B3FBF6F303EBC30606EB03133E
:103AC000A1EB8301322303EBC1016423B1FBF3F1CA
:103AD00001F00701114422689160ACE0564A216868
:103AE000914254D1FDF7B0F900EBC00101EB001198
:103AF00062689200B1FBF2F100EBC00202EB00122F
:103B000063689B00B2FBF3F26423B2FBF3F202EBB7
:103B1000C20303EB0212A1EB8201322202EB01117C
:103B20006422B1FBF2F101F0F00200EBC00101EB05
:103B3000001163689B00B1FBF3F16423B1FBF3F167
:103B400002EB011200EBC00101EB001163689B0066
:103B5000B1FBF3F100EBC00303EB00136668B600A2
:103B6000B3FBF6F36426B3FBF6F303EBC30606EBF5
:103B70000313A1EB8301322303EB01116423B1FB97
:103B8000F3F101F00F0111442268916053E0FDF759
:103B90004BF900EBC00101EB001162689200B1FB30
:103BA000F2F100EBC00202EB001263689B00B2FB73
:103BB000F3F26423B2FBF3F202EBC20303EB021253
:103BC000A1EB8201322202EB01116422B1FBF2F17E
:103BD00001F0F00200EBC00101EB001163689B00F3
:103BE000B1FBF3F16423B1FBF3F102EB011200EB43
:103BF000C00101EB001163689B00B1FBF3F100EB26
:103C0000C00303EB00136668B600B3FBF6F364264B
:103C1000B3FBF6F303EBC30606EB0313A1EB83013F
:103C2000322303EB01116423B1FBF3F101F00F0127
:103C300011442268916070BD0038014000BFFEE76A
:103C40000FB4054B10B503A9044A029800F034F8EC
:103C500010BC5DF814FB000029400008080000209B
:103C600002480068C0F30220704700000CED00E03D
:103C700010B5002804DB0A07130E054A135406E0AA
:103C80000A07140E034A00F00F031B1FD45410BD83
:103C900000E400E018ED00E002E008C8121F08C1CF
:103CA000002AFAD170477047002001E001C1121FBD
:103CB000002AFBD1704700002DE9FF4F8BB09A46D8
:103CC0000F460546002606E025280BD052460D99E2
:103CD00090476D1C761C28780028F5D10FB030462F
:103CE000BDE8F08F0024A0460122604900E00443B3
:103CF00015F8013F203B02FA03F00842F7D128787B
:103D00002E2817D115F8010F44F004042A280ED0EC
:103D10006FF02F022878A0F1300109290AD808EBAA
:103D2000880102EB410100EB01086D1CF2E757F836
:103D3000048B6D1C287869283ED006DC0028CDD085
:103D400063280BD0642804D136E0732810D075287E
:103D50004BD052460D999047761C85E017F8040B1E
:103D60008DF8000000208DF80100E946012003E0F5
:103D700057F8049B4FF0FF3061074FF0000401D467
:103D80000AE0641C44450DDA8442FADB19F8041099
:103D90000029F6D106E0641C8442FCDB19F804100B
:103DA0000029F8D1264404E019F8010B52460D9978
:103DB0009047641EF8D257E001CF4FF00A0B00285D
:103DC00002DA40422D2102E0210504D52B218DF895
:103DD0002410012103E0E10705D02021F7E70DF1D0
:103DE000200908910CE00021F9E701CF4FF00A0B00
:103DF000F9E75946FCF7C4FB01F1300209F8012D3F
:103E00000028F6D1ADEB090000F1200B600701D4CA
:103E10004FF00108D84502DDA8EB0B0000E00020C0
:103E20008046002406E009A85246005D0D9990479F
:103E3000641C761C08988442F5DB04E0302052466E
:103E40000D999047761CB8F10001A8F10108F5DC46
:103E500005E019F8010B52460D999047761CBBF10D
:103E60000001ABF1010BF4DC6D1C34E70928010003
:103E70002DE9F041C1F30A52A2F2FF362F4A304B2E
:103E80000D460446142E2FDA002E12DAFCF781F9C3
:103E900000221346FCF75CFB4CD2002DBCBF4FF058
:103EA0000045002446DB55EA040018BF254D19D112
:103EB00040E0DFF894C02CFA06F705EA070C5CEA4C
:103EC000040C08BFBDE8F081FCF763F9002213463B
:103ED000FCF73EFB2ED2002D03DD4FF48010F040A6
:103EE0000544BD43002425E0332EC8BFBDE8F08162
:103EF000A6F1140C4FF0FF3727FA0CF73C4208BF2D
:103F0000BDE8F081FCF7E9F900221346FCF720FB3D
:103F100010D2002D0DDD142E08BF6D1C09D0C6F186
:103F20003400012101FA00F02044A04238BF6D1C8A
:103F30000446BC4329462046BDE8F0819C750088B4
:103F40003CE4377E0000F03FFFFF0F002DE9F04119
:103F5000C1F30A52A2F2FF362F4A304B0D460446F7
:103F6000142E2FDA002E12DAFCF713F90022134672
:103F7000FCF7EEFA4CD2002DA4BF0024254647DA08
:103F800025F00040204318BF254D41D018E0DFF850
:103F900094C02CFA06F705EA070C5CEA040C08BF8B
:103FA000BDE8F081FCF7F5F800221346FCF7D0FAE3
:103FB0002ED2002D03DA4FF48010F0400544BD43AB
:103FC000002425E0332EC8BFBDE8F081A6F1140C13
:103FD0004FF0FF3727FA0CF73C4208BFBDE8F081ED
:103FE000FCF77BF900221346FCF7B2FA10D2002D41
:103FF0000DDA142E08BF6D1C09D0C6F13400012162
:1040000001FA00F02044A04238BF6D1C0446BC43B6
:1040100029462046BDE8F0819C7500883CE4377E47
:104020000000F0BFFFFF0F0000BF054A126802F05A
:104030004002002AF9D0C2B2014B1B1D1A60704722
:10404000003801408AB00025FCF70CFDFFF702FCA8
:10405000FDF756FCFDF7BCFCFDF7DEFC36483749A2
:10406000086037488860374848603748C860374834
:10407000086137480168314888473548C168354884
:10408000884740F6B830002105910691CDE9071028
:1040900001200822CDE90102CDE90310072000909C
:1040A0002B480B4600221421C6690120B04701208D
:1040B0000021069107910523CDE90810CDE90231D1
:1040C000049108200591CDE9001021480123072221
:1040D00086691846B0474220FEF76EFC85B21E483E
:1040E00001781E48FCF73BF801201C4908700020AD
:1040F0004870012088701420C87050200871632017
:104100004871002417E0122D03D101211448FCF757
:1041100089FC062C09DB002402211148FCF782FCF3
:104120000B480621826A0D489047601CC4B24FF4C8
:104130007A70FCF76BFBE6E7691B00084000002083
:10414000591A0008891B0008391B00080D1B0008BC
:10415000FC4200088050DE19020000209C00002074
:10416000000402402DE9F04D07460E46FCF7ACFA7C
:1041700004460D463A463346FCF7AFF8DFF86CA02C
:10418000DFF86CB01B4B0746884616F0004F4FF027
:1041900000020AD0FCF7DCFA0AD900225B46384656
:1041A0004146FCF7D5F91BD212E0FCF7D1FA08D250
:1041B0000022534620462946FCF78CF804460D465B
:1041C0000EE000225B4638464146FCF7C1F907D8AD
:1041D0000022534620462946FBF7DBFF04460D46E6
:1041E0003146204665F31E01BDE8F08D0000F03F2A
:1041F0000000E03F0000E0BF030406080C10182098
:10420000300000000000000000010203040607085F
:10421000090000000001020304000000000C23005C
:104220000D1E000ED2001A01001FAA00240700274D
:10423000120028C1002994002AC10030D800358F0F
:10424000003B02004000004130012340280A0000EA
:10425000170000001C0C00000F0000003C0F0000C5
:104260000700000050140000160000009C18000019
:104270000E000000781E000006000000A0280000CC
:1042800015000000D43000000D000000F03C0000DC
:10429000050000004051000014000000A86100006B
:1042A0000C000000447A000004000000E4A20000BA
:1042B0001300000050C300000B00000024F40000B5
:1042C000030000008545010012000000A0860100E7
:1042D0000A00000048E80100020000002C8B0200E8
:1042E00011000000400D03000900000090D0030001
:1042F00001000000E093040000000000F12000082D
:10430000411E0008852C0008012C000871210008BE
:1043100079290008CD300008653400082F1E0008F8
:104320004D1E0008B92A00087933000895330008AB
:10433000452D000861370008152A0008C537000818
:10434000B9290008D5370008CD2900084D2C0008F0
:10435000704300080000002040000000983C000866
:10436000B04300084000002090060000A83C000870
:1043700040004000000000000000000000000000BD
:10438000100000000100000068FF1F000000000096
:10439000B12100081D260008A5270008DD28000817
:1043A0004D2900080000000000000000000000008F
:04000005080000F5FA
:00000001FF
