:020000040800F2
:10000000107A0020DD010008E55D00085740000877
:10001000E15D000889150008A58F000800000000B8
:100020000000000000000000000000004501000882
:10003000C516000800000000890100086988000852
:10004000F7010008F7010008F7010008F7010008B0
:10005000F7010008F7010008CD190008E5190008AC
:10006000FD190008151A0008F7010008F70100083B
:10007000F7010008F7010008F7010008F701000880
:100080007916000889160008F7010008F701000832
:10009000F7010008F7010008F70100081F1A00081F
:1000A000F7010008F7010008F7010008F701000850
:1000B000F701000835890008F70100085D400008D5
:1000C000F7010008F7010008F7010008F701000830
:1000D000F7010008558E0008F58E0008F7010008AA
:1000E000F7010008F7010008F7010008F701000810
:1000F000F7010008F7010008F7010008F701000800
:10010000F7010008F7010008F7010008F7010008EF
:10011000F7010008F7010008458900085589000823
:10012000F7010008F7010008F7010008F7010008CF
:10013000DFF80CD000F0A8FC00480047C9AB00086D
:10014000107A0020224B19680868B0E8F00F80F39D
:100150000988BFF36F8F4FF0000080F311884EF0D5
:100160000D0E70470000000006480068006880F32C
:10017000088862B661B6BFF34F8FBFF36F8F00DFA1
:1001800000BF00BF08ED00E0EFF30980BFF36F8F01
:100190000F4B1A6820E9F00F106008B54FF05000BF
:1001A00080F31188BFF34F8FBFF36F8F0CF02AFCE1
:1001B0004FF0000080F31188BDE808401968086816
:1001C000B0E8F00F80F30988BFF36F8F704700BF6E
:1001D00090010020EFF3058070470000064880473B
:1001E00006480047FEE7FEE7FEE7FEE7FEE7FEE71C
:1001F000FEE7FEE7FEE7FEE7DD88000831010008C4
:1002000030B50B46014600202022012409E021FAE6
:1002100002F59D4205D303FA02F5491B04FA02F5E3
:100220002844151EA2F10102F1DC30BD202A04DBB6
:10023000203A21FA02F00021704721FA02F3D0405F
:10024000C2F12002914008431946704710B5431A85
:10025000934209D28318881803E010F8011D03F8AF
:10026000011D521EF9D210BD40EA01039B0703D0C5
:1002700009E008C9121F08C0042AFAD203E011F8E5
:10028000013B00F8013B521EF9D210BDD2B201E091
:1002900000F8012B491EFBD270470022F6E710B58B
:1002A00013460A4604461946FFF7F0FF204610BDE4
:1002B00030B505462A460B4612F8010B13F8014BE0
:1002C00008B1A042F8D01CB1002802D06D1CF1E7A3
:1002D000284630BD421C10F8011B0029FBD1801AB2
:1002E000704710B5002200E0521C835C8C5CA34276
:1002F00001D1002BF8D1D8B2E1B2401A10BDCBB277
:1003000003E00178994203D0401C521EF9D200202C
:100310007047034611F8012B00F8012B002AF9D190
:100320001846704700F0AEBA2DE9FE4F804681EACC
:100330000300C00F0C46009021F0004123F000455F
:10034000B8EB0200A94105D24046214690461C4622
:100350000B46024623F00040104347D0270DC7F359
:100360000A00C3F30A510290401A019040286BDA48
:10037000C3F3130040F4801B0098924620B1002381
:10038000D2EB030A63EB0B0B01985946C0F1400214
:10039000504600F008FA06460D4650465946019A66
:1003A00000F010FA10EB08006141002487EA1152B6
:1003B00084EAE7731A4340D0009A62B3019A012A93
:1003C0004FEA075215DC001B61EB02014FF00042BF
:1003D00002EA0752CDE90042001C41F58011324685
:1003E0002B4600F0A6FA03B0BDE8F08F4046214648
:1003F000F9E7001B61EB0201001C41F580130018B6
:100400005B412018A2F5001747EB030140EAD570C5
:10041000B6196D4111E06D084FEA360645EAC07520
:100420004FEA0752001B61EB0201001C41F58011ED
:1004300049084FEA30000019514132462B4603B0BB
:10044000BDE8F04F00F066BA00980122400000239A
:10045000D0EB020263EBE073009821464FEAE074B0
:10046000B8EB000061EB0401E9E783F000435BE7D0
:1004700081F0004158E72DE9FE4F81EA030404F0C2
:10048000004421F0004100944FF0000B23F00043A2
:1004900050EA01045ED052EA03045BD0C3F30A546D
:1004A000C1F30A552C44A4F2F3340194A0FB025486
:1004B000C1F3130141F48011C3F3130343F4801318
:1004C00001FB024400FB034E840A970A44EA81546C
:1004D00047EA8357A4FB076802958D0A05FB078549
:1004E0004FEA932C04FB0C542705029D4FEA065853
:1004F00047EA1637B5EB08056EEB070C870E920E30
:1005000047EA811742EA8312A7FB0201B6EB0B010F
:1005100064EB00042B0D43EA0C335E1844EB1C50D3
:10052000DA465146E7FB0201C5F313044FEA0B33E9
:1005300043EA14534FEA0432019C43EA0603A4F150
:100540000C040294009CCDE900B400F0F2F903B071
:10055000BDE8F08F00200146F9E72DE9F04D81EA72
:10056000030404F0004B21F0004514464FF0000A4C
:1005700023F0004150EA050220D054EA01021DD0C8
:10058000C5F30A570246C5F31303C1F31300C1F3C1
:100590000A5640F4801543F48013A7EB0608101B9D
:1005A000D64608F2FD3873EB050002D308F10108C6
:1005B00001E092185B41B8F1000F03DA0020014618
:1005C000BDE8F08D00204FF48011064684460EE011
:1005D000171B73EB050705D3121B63EB05030643DB
:1005E0004CEA010C49084FEA300092185B4150EA8E
:1005F0000107EDD152EA030012D082EA040083EA37
:100600000501084305D0101BAB4106D2012200238F
:1006100006E000224FF0004302E06FF001025310A9
:100620001AEB06004CEB085110EB0A0041EB0B01F2
:10063000BDE8F04D00F06EB90EB5C10F80EAE07074
:100640000844CA07002140F233438DE80E000A46F1
:100650000B4600F06EF903B000BD0EB540F2334119
:1006600002910021CDE900110A460B4600F061F924
:1006700003B000BD70B5C1F30A5201F0004500247B
:10068000C1F3130140F2FF3341F480119A4201DAC1
:10069000002070BD40F233439A42A2F2334203DCA1
:1006A0005242FFF7C3FD00E090402C43F1D040429E
:1006B00070BDC1F30A5210B5C1F3130140F2FF330C
:1006C00041F480119A4201DA002010BD40F2334318
:1006D0009A42A2F2334203DC5242FFF7A7FD10BD5B
:1006E000904010BD30B5041E71F1000404DB4FF0E2
:1006F0000044404264EB0101141E73F1000405DB69
:100700001C464FF00043524263EB04038B4208BF88
:10071000824230BD30B5041E71F1000404DB4FF09D
:100720000044404264EB0101141E73F1000405DB38
:100730001C464FF00043524263EB0403994208BF4A
:10074000904230BD2DE9F05F0546002092469B4661
:1007500088460646814640241BE0284641464746D7
:100760002246FFF763FD53465A46C01A914110D303
:1007700011461846224600F016F82D1A67EB0108BC
:100780004F4622460120002100F00DF817EB00092A
:100790004E41201EA4F10104DFDC484631462A46C2
:1007A0004346BDE8F09F202A04DB203A00FA02F11C
:1007B000002070479140C2F1200320FA03F319434F
:1007C00090407047202A06DBCB17203A41FA02F00E
:1007D00043EAE07306E041FA02F3D040C2F120029E
:1007E00091400843194670470FB4002300B589B003
:1007F0000CA900910B996FF00042CB601E4B069341
:100800001E4B07930423CDE901321D4A089202468C
:100810006B46002000F0ECF909B05DF814FB70B5F0
:1008200086B006464FF0FF300091CDE9010100206F
:1008300015460C4604903246694604A8FFF7D4FFDB
:1008400002460498211825B108B1084600E0204668
:100850002860049800280DD0002A02DD0098884204
:1008600008D0081B0094CDE901043246694604A86B
:10087000FFF7BAFF06B070BD290E0008470E00084A
:10088000B50A00082DE9F04791460E468046044619
:10089000002514F8017B2FB100F008F90068C05D55
:1008A000C007F6D12B2F02D02D2F1ED0641E4A4632
:1008B0003146204600F0D8FA26B13268A24201D172
:1008C000C6F800806A054FF0020418D50023D0EB6B
:1008D000030563EB01025D1B934109DB0023D0EBB1
:1008E000030063EB0101BDE8F08745F48065DEE7B6
:1008F00008F0E2FB046000204FF00041F3E7021E25
:1009000071F10002EFDA08F0D7FB04604FF0FF301E
:100910004108E8E710B5141E73F1000408DA401C22
:1009200041F1000192185B411A4301D120F001000E
:1009300010BD2DE9F04D92469B4611B1B1FA81F2FE
:1009400002E0B0FA80F220329046FFF72CFF044616
:100950000F4640EA0A0041EA0B0153465A46084353
:1009600013D0114653EA010019D0C8F14002504695
:10097000FFF75CFC05460E46504659464246FFF7D7
:1009800012FF084305D0012004E020463946BDE8A7
:10099000F08D0020054346EAE0762C4337430A9861
:1009A0006305E40AA0EB08000022FD0A44EA47546C
:1009B0000A3002D500200146E9E701051019694116
:1009C000DDE9084500196941BDE8F04DA2E70000E6
:1009D0002DE9F041054621F000400C46284309D09E
:1009E000C4F30A5040F23341884205DD28462146CF
:1009F000BDE8F0812846FBE740F2FE31884210DC7A
:100A00000CDB4FEA043040EA155050EA053105D0BE
:100A1000104804F0004101430020E9E700200146AE
:100A2000E6E7A0F233404642C6F14002284621469E
:100A3000FFF7B9FE07468846284621463246FFF7AB
:100A4000F5FB43463A46FFF765FF3246BDE8F04105
:100A5000FFF7A9BE0000F03FC1F30A52C1F3130132
:100A600040F2FF3341F480119A4202DA002001463D
:100A7000704740F233439A42A2F2334202DC5242C0
:100A8000FFF7D4BBFFF78FBE064C074D06E0E068CA
:100A900040F0010394E8070098471034AC42F6D3C5
:100AA000FFF74AFB78E4000898E400080048704724
:100AB000ECE3000810B50446FFF7F8FF0068005D9E
:100AC00000F0010010BD00002DE9FF4F087883B051
:100AD0009946FF2805D0491C2D2804D00024002069
:100AE00008E000200BE00124F9E700EB800003EBB5
:100AF0004000491C0B78FF2BF7D104B14042002382
:100B00000293147819461D462D2C01D02B2C04D1AC
:100B1000521C2D2C13D000240294AA461478FF2CCA
:100B20000FD00A25A3FB057801FB05814FF0000CCF
:100B300003FB0C11521CE3194AEB0101EEE70124FF
:100B4000EAE7814453EA010002D019F5C87F06DACA
:100B500003980021C0E9001107B0BDE8F08F00251F
:100B6000AE4E2F46DFF8B882184600F0ECF9CDE91A
:100B70000001B9F1000002DAC9F1000400E0044606
:100B80000023A74A1AEB030B42EB045A12E0E007DA
:100B900007D02A46334638464146FFF76CFC0746E5
:100BA00088462A46334610461946FFF764FC054638
:100BB0000E466410002CEAD1DDE90001B9F1000F06
:100BC0005A46534606DAFFF7C8FC3A464346FFF753
:100BD000C4FC05E0FFF74FFC3A464346FFF74BFCE9
:100BE000029A0AB181F00041039AC2E90001B3E719
:100BF0002DE9FF4F1F468DB0D7E901464FF0FF3872
:100C00002E2045464FF000090B90B9696D1C0E98D7
:100C10008847396A824688470028F6D1BAF1FF3FF3
:100C20000AD024F4D064002E11DDBAF12B0F08D0C5
:100C3000BAF12D0F0BD102E0404611B08DE744F41C
:100C40008064B9696D1C0E9888478246761E694695
:100C5000600501D52D2000E02B208DF8000001F16A
:100C6000010B0DF1200809E0B9696D1C0E98884749
:100C700082460F9844F40074761E0560002E02DD53
:100C8000BAF1300FF0D00B998A453ED144F0800480
:100C900006E00F99681CA9F1010944F4007408608A
:100CA000B9696D1C761E0E98884782463028F0D0B0
:100CB0002BE00B998A4505D1200603D444F080042B
:100CC000761E18E0504608F0CDFA08B30DF1130176
:100CD000761E44F400748B4508D2AAF130000BF85C
:100CE000010B200607D5A9F1010003E0200602D47C
:100CF00009F101008146A00502D50F99681C086022
:100D0000B9696D1C0E9888478246002ED1DC53E0ED
:100D1000002E51DDBAF1650F02D0BAF1450F4BD16B
:100D2000A00549D5B9696D1C24F44074761E0E984F
:100D300088478246002E0CDD2B2804D0BAF12D0FF7
:100D400007D144F48074B9696D1C0E9888478246B7
:100D5000761EE00501D52D2100E02B2108F8011BAE
:100D6000CDF82C8021E00DF12901761E44F40074A9
:100D700088450CD2AAF1300010F0FF0088F800007E
:100D800002D10B99884509D908F1010806E0E00570
:100D900001D5244801E042F20F708146B9696D1C0B
:100DA0000E98884782460F980560002E04DD504655
:100DB00008F058FA0028D6D1F9690E988847FF2024
:100DC0008BF8000088F800000020069007904B4642
:100DD0006A4608A906A8FFF777FEA00502D46FF0BF
:100DE00001002AE714F0240F0AD0E00714D1DDE94E
:100DF00006123868031D3B600068C0E900120BE072
:100E0000DDE9060100F0ABF80146E00704D13868DF
:100E1000021D3A600068016028460EE70000144099
:100E20000000F03FF1D8FFFF426842B1016811F8BD
:100E3000013B23B1521EC0E9001218467047012140
:100E4000C160881E704742685AB1C368016843B9DF
:100E500083688B4205D0491E521CC0E90012002055
:100E600070474FF0FF3070472DE9F74F4FF0000902
:100E7000009C1546CA4614F8010B302801D0ADB1CC
:100E800015E014F8010B4FF00109782803D0582819
:100E900001D04DB10BE00DB1102D08D14FF000097C
:100EA000102514F8010B02E0082500E00A250027B0
:100EB0003E46B8464FEAE57B16E0A5FB07230BFB51
:100EC000073105FB080005FB0616030CD71846F191
:100ED00000061FFA80F8381E4FF0010976F58030C1
:100EE00000D3CA4614F8010B294600F01EF800286A
:100EF000E3DA019838B1B9F1000F01D0641E00E0C7
:100F0000009C01980460BAF1000F08D008F0D4F8F2
:100F100002210160C81E014603B0BDE8F08F310414
:100F200041EA174148EA0740F6E73A2800D230384C
:100F300020F02002412A01D3A2F13700884201D3D8
:100F40004FF0FF3070470EB540F23342029200225C
:100F5000CDE900221346FFF7ECFC03B000BD01F021
:100F6000004330B421F0004150EA010206D00A0DDE
:100F7000A2F56072C1F31301002A02DC30BC00202C
:100F80007047440F44EAC104C100E01830BC00EBD4
:100F9000C250AFF300800029A8BF7047401C490031
:100FA00008BF20F00100704710B4B0FA80FC00FACE
:100FB0000CF050EA010404BF10BC704749B1CCF1F9
:100FC000200421FA04F411FA0CF118BF0121214385
:100FD0000843A3EB0C01CB1D4FEA00614FEA102040
:100FE00042BF002010BC704700EBC35010440029E2
:100FF000A4BF10BC7047401C490008BF20F001008E
:1010000010BC704770B58C1810F8015B15F0070321
:1010100001D110F8013B2A1106D110F8012B03E091
:1010200010F8016B01F8016B5B1EF9D12B0705D499
:101030000023521E0DD401F8013BFAE710F8013BE2
:10104000CB1A921C03E013F8015B01F8015B521EFE
:10105000F9D5A142D8D3002070BD000070B5044678
:1010600000250948008800F4004058B100200649D6
:101070000988C1F30E01054A505421461046FFF776
:1010800017F90546284670BD7C010020580C002049
:1010900010B536E025A007F087FF00BF2A4800689A
:1010A00000F040000028F9D02B202749091D0860D6
:1010B0000F2001F013F800BF2348006800F0400043
:1010C0000028F9D02B202049091D08600F2001F0CD
:1010D00005F800BF1C48006800F040000028F9D067
:1010E0002B201949091D08604FF4FA7000F0F6FF33
:1010F000142216A116A000F097F84FF4967000F095
:10110000EDFF1748142211A1436916A09847002843
:10111000C0D015A007F048FF00BF114814220BA152
:10112000436918A098470028F7D010BDB3A2CAD4CD
:10113000C1ACBDD341544B2D455350383236362EB9
:101140002E2E0D0A00000000004400404F4B00000E
:1011500041542B4349504D4F44453D300000000061
:10116000B8030020415400000D0A41544B2D455353
:101170005038323636C1ACBDD3B3C9B9A6A3A10D20
:101180000A0D0A00415445300000000010B5224805
:101190004078002837D100BF2048006800F04000A8
:1011A0000028F9D02B201D49091D08600F2000F0F0
:1011B00095FF00BF1948006800F040000028F9D0F2
:1011C0002B201649091D08600F2000F087FF00BF83
:1011D0001248006800F040000028F9D02B200F4989
:1011E000091D08604FF4FA7000F078FF14220CA17A
:1011F0000CA000F019F808B9012010BD0120064923
:1012000048700020F9E704484078012801D1002007
:10121000F3E700BFF1E70000B803002000440040FE
:101220004F4B0000415400002DE9F04106460D46A9
:10123000144600271948407810B90020BDE8F08115
:10124000002017490880314616A00BF06DF8002DDC
:1012500021D004B314E00A2000F040FF10480088B9
:1012600000F4004060B12846FFF7F8FE074627B1BA
:1012700029460EA007F098FE06E0002008490880E5
:10128000601E80B2041EE6D100BF24B931460AA018
:1012900007F08AFE00273846D0E70000B803002098
:1012A0007C01002025730D0A0000000061636B3A89
:1012B00025730D0A0000000073656E6420636D6481
:1012C0003A222573222074696D656F7574210D0AA9
:1012D0000000000070B5044600250748407801284A
:1012E00000D170BD002005490880214604A00BF004
:1012F0001BF82846F5E70000B80300207C01002019
:10130000257300002DE9F04704460D4616461F469A
:10131000DDF82080202009F0A9FD8146202009F079
:10132000A5FD82463848322238A1436938A0984743
:101330003548322235A1436938A098474FF47A6086
:1013400000F0CCFE2B46224636A1484607F054FE5C
:1013500000BF2D484FF496722CA143694846984728
:101360000028F6D02848322233A1436933A0984799
:1013700035A0FFF773FE20B936A007F015FEBDE8D3
:10138000F0872A46214639A007F00EFE0121434886
:1013900000680BF009FC1C4814221CA1436940A002
:1013A00098473B46324641A1504607F025FE00BF14
:1013B0001548C82215A14369504698470028F7D020
:1013C000114832221CA143693FA0984742A0FFF771
:1013D00045FE18B943A007F0E7FDD0E703200A490E
:1013E00008703A46314645A007F0DEFDB8F1000F1F
:1013F00002D1054908698047504609F0E5FC484696
:1014000009F0E2FC00BFBAE7B80300204F4B000030
:1014100041542B43574D4F44453D310041542B52CD
:101420005354000041542B43574A41503D222573E9
:10143000222C2225732200003A00000041542B4345
:1014400049505354413F00002B4349505354413AB3
:1014500000000000C1ACBDD34150CAA7B0DC2120C0
:10146000C7EBBCECB2E90D0A000000000D0AC1ACEC
:10147000BDD3CEDECFDF4150B3C9B9A62C207373E4
:101480006964203D2025732C2070617373776F721F
:1014900064203D2025730D0A00000000500100204B
:1014A00041542B4349504D55583D300041542B4336
:1014B000495053544152543D22544350222C22252A
:1014C00073222C257300000041542B434950535480
:1014D00041545553000000005354415455533A337E
:1014E00000000000BDA8C1A2544350CAA7B0DC212F
:1014F00020C7EBBCECB2E90D0A0000000D0ABDA844
:10150000C1A2544350C1ACBDD3B3C9B9A62C206805
:101510006F7374203D2025732C20706F7274203DF2
:101520002025730D0A00000010B50E4840780128F0
:1015300011D1C8220CA10DA0FFF776FE28B114220C
:1015400009A10EA0FFF770FE08B9012010BD002010
:1015500004494870FAE70348407808B90020F5E7E5
:1015600000BFF3E7B80300204F4B000041542B436A
:1015700049504D4F44453D310000000041542B433C
:10158000495053454E44000000BFFEE72DE9F84F97
:101590000546894692461F4600240026A34604209D
:1015A00009F064FC80467B222146641C6A5400BF1B
:1015B0004CE02E4800EB461020B92DA007F0F4FCBB
:1015C0004FF0010B0020C8F8000022222046611CC9
:1015D000CCB22A54254901EB4610FEF77BFE234A84
:1015E00002EB461100902819009AFEF72FFE1F49C2
:1015F00001EB4610FEF76EFE2044C4B222222046C4
:10160000611CCCB22A543A222046611CCCB22A5426
:101610001AF806000A22414609F0E4FB4046FEF7AC
:1016200059FE009028194146009AFEF70FFE4046E9
:10163000FEF750FE2044C4B2781EB04204D02C22E3
:101640002046611CCCB22A54701CC6B2BE42B0DB2C
:101650007D222046611CCCB22A54A9F800404046A5
:1016600009F0B2FB5846BDE8F88F0000E003002007
:101670006572726F720A000010B5024800F0CEFA6F
:1016800010BD00003006002010B5024800F0C6FA78
:1016900010BD0000EC05002030B590F8405001244A
:1016A000AC40C56B6C60046863604468102C04D166
:1016B0000468A2600468E16003E00468A160046853
:1016C000E26030BD704700002DE9FF4FC9B01446FD
:1016D0009A460020049003900290499800787B2855
:1016E00006D070A007F060FC01204DB0BDE8F08F7F
:1016F0000AAB10224A99499808F0E6FD8346BBF1EF
:10170000000F0BD16DA007F04FFC21A971A007F0CD
:101710004BFC584608F056FD0220E6E771A15846FA
:1017200008F038FE8046B8F1000F03D098F80000AA
:10173000032807D06DA007F037FC584608F042FD9B
:101740000320D2E7404608F0B3FDC0B203906EA07C
:10175000039907F029FC0398012802D0022878D1C8
:1017600041E06EA1584608F015FE019008F0A0FD7A
:10177000C6B26DA1584608F00DFE019008F098FD24
:10178000C7B26BA1584608F005FE019008F090FD25
:10179000C0B2099068A1584608F0FCFD019008F01D
:1017A00087FDC0B2089066A1584608F0F3FD01908D
:1017B00008F07EFDC0B207903A46314662A007F0BD
:1017C000F3FB68A0DDE90732099907F0EDFB26700D
:1017D00067700998A0700898E0700798207105203C
:1017E000AAF8000058E04DA1584608F0D3FD01903A
:1017F00008F05EFDC6B24CA1584608F0CBFD019042
:1018000008F056FDC7B25FA1584608F0C3FD01902D
:1018100008F04EFDC0B206905BA1584608F0BAFD34
:10182000019008F045FDC0B2059059A1584608F056
:10183000B1FD019008F00AFE81464846FEF74AFDD8
:10184000C0B204903A4631463FA007F0ADFB4B468C
:1018500000E01BE04FA0DDE9052107F0A5FB2670A5
:1018600067700698A0700598E070049820710025B4
:1018700005E019F80510681D2154681CC5B20498CC
:101880008542F6DB681DAAF8000005E048A007F0D5
:101890008BFB0320029000BF00BF584608F092FC6B
:1018A000029822E7B2BBCAC7B1EAD7BCB5C46A7313
:1018B0006F6ED7D6B7FBB4AE0D0A0000BDE2CEF610
:1018C0006A736F6ECAFDBEDDB7A2C9FAB4EDCEF37E
:1018D000A3AC0000B4EDCEF3B4FAC2EB203A25730A
:1018E0000D0A0000466C616700000000B7D6C0EB2F
:1018F000CAFDBEDDB1A8C0E0D0CDB3F6CFD6B4ED01
:10190000CEF30D0A00000000646174616772616DBE
:10191000666C61673A25640D0A00000047617465D2
:1019200057617949440000004E6F646549440000E6
:1019300054656D700000000048756D69000000007E
:1019400042617474657279000D0A4761746557616C
:101950007949443A25642C204E6F646549443A2500
:10196000640D0A0054656D703A25642C2048756D2D
:10197000693A25642C20426174746572793A256451
:10198000200D0A004C65640050756D700000000069
:101990004C6364004C65643A25642C2050756D706E
:1019A0003A25642C204C63643A2573200D0A00000C
:1019B000696C6C6567616C20646174616772616DEC
:1019C00020666C616721200D0A00000010B50449F3
:1019D000096808688047012000F0A4FB10BD0000E2
:1019E0004805002010B5044909684868804702206E
:1019F00000F098FB10BD00004805002010B5044918
:101A0000096888688047042000F08CFB10BD000046
:101A10004805002010B5082000F084FB10BD10B56B
:101A2000202000F07FFB10BD10B502A007F0BCFA2B
:101A300010BD00006572726F720D0A00024600212F
:101A400011E00B4850F8310090420AD8084B481C6E
:101A500053F83000904204D9184600EBC1000079D9
:101A60007047481CC1B21529EBD300BFFEE7000048
:101A700064E2000870B50446002594F821000228AD
:101A800003D00420A0630125C1E02068006820F095
:101A90000E00216808602068006820F001002168BD
:101AA00008605C492068884252D95A4978392068D0
:101AB000884201D1012047E05649643920688842B4
:101AC00001D1102040E0534950392068884201D1AB
:101AD000801539E04F493C392068884201D1801493
:101AE00032E04C4928392068884202D14FF48030D6
:101AF0002AE0484914392068884202D14FF4801006
:101B000022E044492068884201D140041CE0424957
:101B10002068884201D1012016E03F491431206835
:101B2000884201D110200FE03B49283120688842CB
:101B300001D1801508E038493C312068884201D144
:101B4000801401E04FF480303349091F086051E0F0
:101B5000304978392068884201D1012047E02D4979
:101B600064392068884201D1102040E02949503969
:101B70002068884201D1801539E026493C39206827
:101B8000884201D1801432E02249283920688842F5
:101B900002D14FF480302AE01E491439206888426F
:101BA00002D14FF4801022E01A492068884201D106
:101BB00040041CE018492068884201D1012016E049
:101BC000154914312068884201D110200FE01249D4
:101BD00028312068884201D1801508E00E493C3147
:101BE0002068884201D1801401E04FF48030094917
:101BF00080394860012084F8210000BF002084F86B
:101C0000200000BF606B10B12046616B88472846FA
:101C100070BD0000800002400804024070B5044618
:101C2000E06B05682068066894F84010042088403E
:101C30002840002875D006F004000028FAD020685B
:101C4000006800F0200028B92068006820F0040037
:101C500021680860D5492068884254D9D349783929
:101C60002068884201D1042049E0D04964392068C5
:101C7000884201D1402042E0CC4950392068884256
:101C800001D100153BE0C9493C392068884202D1A6
:101C90004FF4804033E0C54928392068884202D19A
:101CA0004FF480202BE0C14914392068884202D1CA
:101CB0004FF4800023E0BD492068884201D1C00470
:101CC0001DE0BB492068884201D1042017E0B849D3
:101CD00014312068884201D1402010E0B4492831F5
:101CE0002068884201D1001509E0B1493C312068E3
:101CF000884202D14FF4804001E04FF48020AC498B
:101D0000091F086054E0A94978392068884201D148
:101D100004204AE0A54964392068884202D1402065
:101D200043E04CE0A14950392068884201D10015B8
:101D30003BE09E493C392068884202D14FF4804004
:101D400033E09A4928392068884202D14FF4802034
:101D50002BE0964914392068884202D14FF4800064
:101D600023E092492068884201D1C0041DE09049D7
:101D70002068884201D1042017E08D491431206881
:101D8000884201D1402010E08949283120688842EA
:101D900001D1001509E086493C312068884202D112
:101DA0004FF4804001E04FF4802080498039486042
:101DB000E06A002802D02046E16A8847F4E094F8FF
:101DC0004010022088402840002871D006F0020010
:101DD0000028FAD02068006800F0200040B9206890
:101DE000006820F00A0021680860012084F82100C2
:101DF0006E492068884254D96C49783920688842F5
:101E000001D1022049E0694964392068884201D142
:101E1000202042E0654950392068884201D14015B0
:101E20003BE062493C392068884202D14FF40050BF
:101E300033E05E4928392068884202D14FF40030EF
:101E40002BE05A4914392068884202D14FF400101F
:101E500023E056492068884201D180041DE054499E
:101E60002068884201D1022017E0514914312068CE
:101E7000884201D1202010E04D4928312068884255
:101E800001D1401509E04A493C312068884202D11D
:101E90004FF4005001E04FF400304549091F08603D
:101EA00054E0424978392068884202D102204AE051
:101EB00057E03E4964392068884201D1202042E041
:101EC0003A4950392068884201D140153BE03749F2
:101ED0003C392068884202D14FF4005033E0334946
:101EE00028392068884202D14FF400302BE02F4976
:101EF00014392068884202D14FF4001023E02B49A6
:101F00002068884201D180041DE029492068884268
:101F100001D1022017E0264914312068884201D1FE
:101F2000202010E0224928312068884201D1401544
:101F300009E01F493C312068884202D14FF400502B
:101F400001E04FF4003019498039486000BF00209B
:101F500084F8200000BFA06A30B32046A16A8847F9
:101F600022E094F84010082088402840E0B106F0B4
:101F70000800C8B12068006820F00E0021680860E1
:101F800094F8401001208840E16B48600120A06374
:101F900084F8210000BF002084F8200000BF206BDF
:101FA00010B12046216B884770BD000080000240C0
:101FB000080402400146002209B9012070471E4B67
:101FC000086898420BD21D4B0868C01A1423B0FB56
:101FD000F3F08000086419480838C8630AE0164B1B
:101FE0000868C01A1423B0FBF3F08000086412489C
:101FF0000838C863022081F821000868026843F6A7
:10200000F0708243D1E901031843CB6818430B6990
:1020100018434B6918438B691843CB691843024333
:102020000868026000208863012081F821000020F8
:1020300081F8200000BFC1E7080402400800024008
:102040002DE9F04104460D4616461F464FF00008A4
:1020500000BF94F82000012802D10220BDE8F081E1
:10206000012084F8200000BF94F8210001282CD121
:10207000022084F821000020A0632068006820F07E
:102080000100216808603B46324629462046FFF79A
:1020900003FBE06A30B12068006840F00E00216860
:1020A00008600BE02068006820F0040021680860E8
:1020B0002068006840F00A00216808602068006815
:1020C00040F001002168086006E000BF002084F8AD
:1020D000200000BF4FF002084046BFE770B504463D
:1020E00000F0D4F906462546681C10B10448007873
:1020F000054400BF00F0CAF9801BA842FAD370BDA6
:102100008801002010B50446202C06D10348006841
:1021100018B90121024806F087FC10BD14012242C3
:102120000C07002010B5044604480068204020B188
:10213000024804602046FFF7E5FF10BD140401408B
:102140002DE9F84702460024002000258446002798
:1021500000237BE14FF0010808FA03F4D1F8008076
:1021600008EA0400A0427DD1DFF8ECA2D1F8048097
:10217000A8EB0A09D0453AD014DCB8F1030F50D0CF
:1021800009DCB8F1000F31D0B8F1010F1CD0B8F163
:10219000020F49D120E0B8F1110F18D0B8F1120F99
:1021A00042D11EE0B9F5881F25D006DCB9F5803F85
:1021B00020D0B9F5801F37D11AE0B9F5001F18D02B
:1021C000B9F5041F30D117E0D1F80CC02DE0D1F8DB
:1021D0000C8008F1040C28E0D1F80C8008F1080C00
:1021E00023E0D1F80C8008F10C0C1EE000BF00BF0A
:1021F00000BF00BF00BF00BFD1F80880B8F1000FDA
:1022000002D14FF0040C0BE0D1F80880B8F1010FB7
:1022100003D14FF0080C146102E04FF0080C546138
:1022200003E04FF0000C00E000BF00BFFF2801D822
:10223000904601E002F104084646FF2802D84FEA22
:10224000830803E0A3F108084FEA88084746D6F858
:1022500000804FF00F0909FA07F928EA09080CFA7B
:1022600007F900E07AE048EA0908C6F80080D1F8EA
:10227000048008F08058B8F1805F6FD100BFDFF8AC
:10228000DC81D8F8188048F00108DFF8D091C9F84F
:102290001880C846D8F8188008F00108CDF80080EA
:1022A00000BF00BF4FEAB9384FEA930958F82950E8
:1022B0004FEA83784FEA18794FF00F0808FA09F8C7
:1022C00025EA0805DFF89881424502D14FF0000861
:1022D00024E0DFF89081424502D14FF001081DE073
:1022E000DFF88481424502D14FF0020816E0DFF8A2
:1022F0007C81424502D14FF003080FE0DFF8708186
:10230000424502D14FF0040808E0DFF868814245F9
:1023100002D14FF0050801E04FF006084FEA83793B
:102320004FEA197908FA09F848EA0505DFF8488103
:102330004FEA930948F82950D1F8048008F480380E
:10234000B8F5803F0BD1DFF83481D8F8008048EA37
:102350000008DFF82891C9F800800AE075E0DFF88E
:102360001C81D8F8008028EA0008DFF81091C9F82D
:102370000080D1F8048008F40038B8F5003F0ED191
:10238000DFF8F88008F10408D8F8008048EA00086F
:10239000DFF8E89009F10409C9F800800DE0DFF8E2
:1023A000DC8008F10408D8F8008028EA0008DFF88B
:1023B000CC9009F10409C9F80080D1F8048008F430
:1023C0008018B8F5801F0ED1DFF8B08008F108083A
:1023D000D8F8008048EA0008DFF8A09009F1080961
:1023E000C9F800800DE0DFF8948008F10808D8F8FB
:1023F000008028EA0008DFF8849009F10809C9F88C
:102400000080D1F8048008F40018B8F5001F0ED140
:10241000DFF8688008F10C08D8F8008048EA000866
:10242000DFF8589009F10C09C9F800800DE0DFF8D9
:102430004C8008F10C08D8F8008028EA0008DFF882
:102440003C9009F10C09C9F800805B1C102BFFF4CB
:1024500081AEBDE8F88700000000111000100240B6
:1024600000080140000C0140001001400014014030
:1024700000180140001C0140080001400004014018
:102480000AB1016101E00B04036170470148006873
:102490007047000080010020704770472DE9F0412F
:1024A000064630688769306844693068456896F840
:1024B0003E80B8F1100F02D0B8F1400F58D104F0AF
:1024C000011030B105F4007018B1304602F04FFA37
:1024D00013E04E48204030B105F4007018B130468A
:1024E00002F01BF909E04948801F204028B105F49B
:1024F000007010B1304602F017F945483840D8B1A5
:1025000042487830204050B105F4806038B13F48EF
:10251000001F204018B9304602F05AF874E03B48DA
:10252000001F204000286FD005F4007000286BD0F9
:10253000304601F0FDFF67E034483830204050B1AC
:1025400005F4806038B13148001F204018B930468A
:1025500001F07FFF58E02D48001F2040002853D095
:1025600005F4007000284FD0304601F0F1FE4BE03A
:102570002648801F204030B105F4007018B1304665
:1025800002F00AFB40E021480830204030B105F459
:10259000007018B1304602F01BFB35E01C48384093
:1025A000C8B11A487830204050B105F4806038B185
:1025B0001648001F204018B9304602F0CAFA23E03E
:1025C0001248001F2040F8B105F40070E0B1304619
:1025D00002F0B1FA18E00D483830204050B105F44F
:1025E000806038B10948001F204018B9304602F019
:1025F0007EFA09E00548001F204028B105F400706C
:1026000010B1304602F064FABDE8F0810800010024
:10261000040010007047000070B504460026002535
:102620000CB9012070BD94F83D0028B9002084F851
:102630003C00204600F09EF9242084F83D002068EC
:10264000006820F001002168086000F0E3FB054607
:102650004C496068884206D84B48854201D2012027
:1026600007E0002005E04948854201D2012000E052
:102670000020012800D1D5E74548B5FBF0F62068D9
:10268000466040496068884201D8701C07E04FF4FA
:10269000967070434FF47A71B0FBF1F0401C2168E2
:1026A000086238496068884214D8681E6168490029
:1026B000B0FBF1F0401CC0F30B00042801D2042051
:1026C0003DE0681E61684900B0FBF1F0401CC0F3BA
:1026D0000B0034E0A06838B9681E616801EB410165
:1026E000B0FBF1F0401C0AE0681E616801EBC1021A
:1026F00002EB0111B0FBF1F0401C40F48040C0F34C
:102700000B0008B901201AE0A06848B9681E61688A
:1027100001EB4101B0FBF1F0401CC0F30B000CE0F9
:10272000681E616801EBC10202EB0111B0FBF1F020
:10273000401CC0F30B0040F4804040F4004021688E
:10274000C861D4E90701084321680860D4E903108F
:10275000084321688860D4E9050108432168C860FE
:102760002068006840F001002168086000202064B3
:10277000202084F83D000020206384F83E0000BF44
:1027800050E70000A086010080841E0000093D0083
:1027900040420F007047704710B5044601A006F094
:1027A00003FC10BD493243204D617374657220549F
:1027B000782043706C742043616C6C6261636B0DB4
:1027C0000A00000010B5044601A006F0EDFB10BDA4
:1027D000493243204D656D2052782043706C74203F
:1027E00043616C6C6261636B0D0A000010B50446B6
:1027F00003F020FC10BD00002DE9FE4F04460E46FC
:1028000017469846DDE90C95002002908246FFF7B6
:102810003DFE824694F83D0020287AD15148006858
:102820001921B0FBF1F04FF47A71B0FBF1F000EB3D
:10283000C00101EB0010029000BF0298411E0291FE
:1028400060B900202063202084F83D0000BF0020F4
:1028500084F83C0000BF0320BDE8FE8F206880693B
:10286000C0F340000028E8D100BF94F83C000128E4
:1028700001D10220F0E7012084F83C0000BF20686D
:10288000006800F0010028B92068006840F00100ED
:10289000216808602068006820F4006021680860F2
:1028A000212084F83D00402084F83E000020206470
:1028B000C4F82490258565852B48E062208D00288A
:1028C0004BD02A48616B88622948616B08630020FD
:1028D000616BC862616B4863238DD4F800C00CF152
:1028E0001002616A606BFFF7ABFB232043463A4658
:1028F0003146CDE9000A204602F07AF888B1206C12
:10290000042807D100BF002084F83C0000BF01204C
:10291000A2E724E000BF002084F83C0000BF0320B1
:102920009AE700BF0020019020684069019020686C
:102930008069019000BF00BF00BF002084F83C0008
:1029400000BF2068406840F48070216848602068BB
:10295000406840F400602168486000207CE7022065
:102960007AE700008C0100200000FFFF074100080B
:10297000D540000810B586B00446002002900390B0
:10298000049005903B492068884271D100BF3A48C5
:10299000C06940F400103849C8610846C06900F4B5
:1029A0000010019000BF00BF00BF0846806940F0E2
:1029B000080088610846806900F00800019000BFA7
:1029C00000BFC0200290122003900320059002A9AE
:1029D0002A48FFF7B5FB00BF2748C06940F4001044
:1029E0002549C8610846C06900F40010019000BF85
:1029F00000BF234823490860002048600021214887
:102A000081608021C16000210161416181614FF4D9
:102A10000051C161FFF7CEFA08B1FFF705F800BF1A
:102A20001848A063446200BF15481438164908606E
:102A3000102048600021144881608021C16000217D
:102A40000161416181614FF40051C161FFF7B2FA48
:102A500008B1FEF7E9FF00BF0B486063446200BFA6
:102A6000002205211F2000F094F81F2000F084F8B8
:102A700006B010BD0054004000100240000C0140A0
:102A800080000240EC0500203006002070477047AF
:102A90000348006803490978084401490860704701
:102AA000800100208801002010B50848006840F02F
:102AB000100006490860032000F0AAF80F2000F07B
:102AC00007F800F02BF8002010BD000000200240A5
:102AD00070B504460E4800784FF47A71B1FBF0F0FF
:102AE0000C490968B1FBF0F5284600F0B2FD08B1C9
:102AF000012070BD102C07D200222146501E00F08C
:102B000048F80548046001E00120F2E70020F0E702
:102B1000880100208C0100208401002008B500BF3E
:102B20001348806940F001001149886108468069B6
:102B300000F00100009000BF00BF00BF0846C06960
:102B400040F08050C8610846C06900F08050009095
:102B500000BF00BF00220F21901E00F01AF800BF36
:102B60000449486820F0E06000BF486000BF08BD2D
:102B7000001002400000014000BF00F01F020121D0
:102B800091404209920002F1E022C2F8001100BF18
:102B900070472DE9F05F80460D461646002703F08A
:102BA00023F9074639462A46334601F00700C0F1AB
:102BB000070ABAF1040F02D94FF0040A01E0C0F18C
:102BC000070AD14600F1040ABAF1070F02D24FF00A
:102BD000000A01E0A0F1030AD4464FF0010A0AFA04
:102BE00009FAAAF1010A0AEA020A0AFA0CFA4FF0F3
:102BF000010B0BFA0CFBABF1010B0BEA030B4AEADE
:102C00000B042146404603F0F7F8BDE8F09F0000B2
:102C100000BF00F00702064B19684FF6FF0319408A
:102C2000044B0B4343EA0221014B196000BF70477C
:102C30000CED00E00000FA0570B504460D460026D4
:102C40006D48006800F00700A8420ED26A4800688C
:102C500020F007002843684908600846006800F033
:102C60000700A84201D0012070BD207800F00200CA
:102C700002281DD1207800F00400042805D15F4807
:102C8000406840F4E0605D494860207800F008004A
:102C9000082805D15948406840F4605057494860B9
:102CA0005648406820F0F000A16808435349486046
:102CB000207800F0010000285DD06068012806D16E
:102CC0004E48006800F4003090B90120CCE76068FD
:102CD000022806D14948006800F0007040B9012080
:102CE000C2E74648006800F0020008B90120BBE7CF
:102CF0004248406820F00300616808433F4948604B
:102D0000FFF7C4FB06466068012810D108E0FFF712
:102D1000BDFB801B41F28831884201D90320A3E723
:102D20003648406800F00C000428F0D123E06068C9
:102D3000022810D108E0FFF7A9FB801B41F288317F
:102D4000884201D903208FE72C48406800F00C002E
:102D50000828F0D10FE008E0FFF798FB801B41F254
:102D60008831884201D903207EE72448406800F07A
:102D70000C000028F0D12048006800F00700A842AD
:102D80000ED91D48006820F0070028431A49086042
:102D90000846006800F00700A84201D0012063E760
:102DA000207800F00400042807D11448406820F47B
:102DB000E060E168084311494860207800F00800AD
:102DC000082808D10D48406820F46050216940EA85
:102DD000C1000A49486000F03DF808494968C1F35C
:102DE0000311074A515CC840064908600F20FFF7ED
:102DF0006FFE002038E70000002002400010024073
:102E0000ACD900088C010020014800687047000020
:102E10008C01002000B5FFF7F7FF04494968C1F3B2
:102E20000221034A515CC84000BD0000001002406E
:102E3000BCD9000800B5FFF7E7FF04494968C1F3B2
:102E4000C221034A515CC84000BD0000001002408E
:102E5000BCD90008F0B585B00FF26C0C9CE8E0100E
:102E600001A8A0E8E0101CA52D6800950021002213
:102E7000002300240020194D696801F00C05F5B10C
:102E8000042D02D0082D19D101E0154819E001AD3B
:102E9000C1F38346AC5D01F4803555B10F4D6D68CB
:102EA000C5F340451DF805200D4D6543B5FBF2F314
:102EB00002E00C4D04FB05F3184602E000BF084891
:102EC00000BF00BF05B0F0BD0203040506070809F6
:102ED0000A0B0C0D0E0F1010010200000010024032
:102EE00000127A0000093D00F8B50446002520785C
:102EF00000F00100002878D0F848406800F00C008D
:102F000004280CD0F548406800F00C00082811D1C6
:102F1000F248406800F48030B0F5803F0AD1EF48B5
:102F2000006800F4003000285FD0606800285CD1A1
:102F30000120F8BD00BF6068B0F5803F06D1E748CA
:102F4000006840F48030E549086028E0606858B9BE
:102F5000E248006820F48030E049086008460068D4
:102F600020F4802008601AE06068B0F5A02F0BD133
:102F7000DA48006840F48020D849086008460068B4
:102F800040F4803008600AE0D448006820F48030C3
:102F9000D24908600846006820F48020086000BF1D
:102FA000606888B1FFF772FA054606E0FFF76EFA2F
:102FB000401B642801D90320BBE7C848006800F41F
:102FC00000300028F2D010E0FFF760FA054606E076
:102FD000FFF75CFA401B642801D90320A9E7BF482A
:102FE000006800F400300028F2D1207800F00200E0
:102FF000022857D1B948406800F00C0050B1B748DA
:10300000406800F00C00082818D1B448406800F46B
:10301000803098B9B148006800F0020020B1206902
:10302000012801D0012084E7AC48006820F0F800B6
:10303000616940EAC100A949086033E02069E8B14C
:103040000120A7490860FFF721FA054606E0FFF7CF
:103050001DFA401B022801D903206AE79F48006837
:1030600000F002000028F2D09C48006820F0F80030
:10307000616940EAC1009949086013E0002098495D
:103080000860FFF703FA054606E0FFF7FFF9401B6B
:10309000022801D903204CE79048006800F00200A4
:1030A0000028F2D1207800F0080008282DD1A0696E
:1030B000B8B101208B490860FFF7E8F9054606E042
:1030C000FFF7E4F9401B022801D9032031E78348C8
:1030D000406A00F002000028F2D0012003F0A8F9B5
:1030E00013E000207F490860FFF7D0F9054606E0AD
:1030F000FFF7CCF9401B022801D9032019E77748D4
:10310000406A00F002000028F2D1207800F00400AC
:10311000042873D100267148C06900F0805070B94E
:1031200000BF6E48C06940F080506C49C8610846D5
:10313000C06900F08050009000BF00BF01266A48BF
:10314000006800F48070B0B96748006840F480708F
:1031500065490860FFF79AF9054606E0FFF796F91A
:10316000401B642801D90320E3E65F48006800F4AF
:1031700080700028F2D000BFE068012806D15748CF
:10318000006A40F001005549086227E0E06858B93C
:103190005248006A20F00100504908620846006A5F
:1031A00020F00400086219E0E06805280BD14B48C4
:1031B000006A40F00400494908620846006A40F08D
:1031C000010008620AE04548006A20F00100434916
:1031D00008620846006A20F00400086200BFE06848
:1031E000A0B1FFF753F9054609E0FFF74FF9401B7F
:1031F00041F28831884202D903209AE622E037481A
:10320000006A00F002000028EFD012E0FFF73EF95C
:10321000054608E0FFF73AF9401B41F28831884241
:1032200001D9032085E62D48006A00F0020000283D
:10323000F0D1012E05D12948C06920F080502749DE
:10324000C86100BFE069C8B32448406800F00C00C2
:10325000082860D0E069022848D10020204908668B
:10326000FFF714F9054606E0FFF710F9401B0228A6
:1032700001D903205DE61948006800F000700028BD
:10328000F2D1206AB0F5803F07D11448406820F49D
:103290000030A168084311494860D4E90801084397
:1032A0000E49496821F4741108430C494860012013
:1032B0000B490866FFF7EAF8054607E02DE0FFF73F
:1032C000E5F8401B022801D9032032E603480068D4
:1032D00000F000700028F2D01FE000000010024053
:1032E00000004242800442420070004000200C492D
:1032F0000866FFF7CBF8054606E0FFF7C7F8401B66
:10330000022801D9032014E60648006800F0007086
:103310000028F2D101E001200BE6002009E60000C0
:10332000000042420010024010B504460CB90120D2
:1033300010BD0021A16294F8510010B9204600F0A0
:1033400037F8022084F851002068006820F040001F
:1033500021680860D4E901010843E1680843216954
:10336000084361690843218B01F400710843E16956
:103370000843216A0843A16A0843216808600421C0
:10338000A06901EA1040616A084321684860216829
:10339000E06A08612068C06920F400602168C861A3
:1033A00000206065012084F851000020C0E7000083
:1033B00010B586B00446002002900390049005905A
:1033C0001949206888422DD100BF1848806940F40F
:1033D0008050164988610846806900F48050019049
:1033E00000BF00BF00BF0846806940F0040088614C
:1033F0000846806900F00400019000BF00BFA020D3
:103400000290022003900320059002A90848FEF7CD
:1034100097FE4020029000200390049002A90448E7
:10342000FEF78EFE06B010BD0030014000100240D5
:10343000000801402DE9FE4F04460D4616461F4682
:10344000DDF830804FF0000A0020029081464FF0F6
:10345000010B019000BF94F85000012802D1022016
:10346000BDE8FE8F012084F8500000BFFFF70EF882
:10347000814694F851A060680290BAF1010F0BD018
:103480000298B0F5827F04D1A06810B9BAF1040F98
:1034900002D002200190D2E00DB106B117B901208F
:1034A0000190CCE094F85100012802D1052084F865
:1034B000510000206065A663E787A7872563E7863C
:1034C000A786206460642068006800F040004028FF
:1034D00005D02068006840F0400021680860E0687E
:1034E000B0F5006F43D1606810B1E08E012806D1BD
:1034F00028882168C860AD1CE08E401EE0862FE061
:10350000BBF1000F10D0E08E70B12068806800F031
:103510000200022808D128882168C860AD1CE08E0E
:10352000401EE0864FF0000BE08F68B12068806895
:1035300000F0010040B12068C0683080B61CE08F08
:10354000401EE0874FF0010B08F1010040B1FEF78B
:103550009DFFA0EB0900404502D3032001906EE0DF
:10356000E08E0028CCD1E08F0028C9D142E060680D
:1035700010B1E08E012806D12878216808736D1CEF
:10358000E08E401EE0862FE0BBF1000F10D0E08EF1
:1035900070B12068806800F00200022808D115F898
:1035A000010B21680873E08E401EE0864FF0000B8F
:1035B000E08F68B12068806800F0010040B12068A9
:1035C000C06806F8010BE08F401EE0874FF0010B4A
:1035D00008F1010040B1FEF759FFA0EB090040459A
:1035E00002D3032001902AE0E08E0028CCD1E08FA6
:1035F0000028C9D14346012202212046CDF800907F
:1036000002F0C0FF10B10320019018E04A46414685
:10361000204602F0A3FF20B1012001902020606528
:103620000DE0A06850B900BF002000902068C0687D
:10363000009020688068009000BF00BF00BF01209C
:1036400084F8510000BF002084F8500000BF0198AA
:1036500006E770B504462546681EB0F1807F01D3A9
:1036600001200FE0681E4FF0E02148610F214FF06C
:10367000FF3002F0C1FB00204FF0E02188610720FD
:103680000861002070BD70477047024600BF92F885
:103690003C00012801D102207047012082F83C0043
:1036A00000BF022082F83D001068406820F07000E2
:1036B00013685860106840680B68184313685860B6
:1036C0001068806820F08000136898601068806837
:1036D0004B68184313689860012082F83D0000BFD2
:1036E000002082F83C0000BF00BFD5E710B50446BB
:1036F0000CB9012010BD94F83D0028B9002084F8D1
:103700003C00204600F00CF8022084F83D00211D0A
:10371000206805F027F9012084F83D000020E9E742
:1037200038B5044628492068884216D100BF27488A
:10373000C06940F002002549C8610846C06900F030
:103740000200009000BF00BF002205211D20FFF7EE
:1037500020FA1D20FFF710FA34E01D492068884246
:1037600016D100BF1948C06940F010001749C86160
:103770000846C06900F01000009000BF00BF0022A2
:1037800005213620FFF705FA3620FFF7F5F919E095
:1037900010492068884215D100BF0C48C06940F02C
:1037A00020000A49C8610846C06900F02000009066
:1037B00000BF00BF002205213720FFF7EAF93720BC
:1037C000FFF7DAF938BD00000004004000100240A5
:1037D000001000400014004001460868C06840F036
:1037E00001000A68D0600868006840F001000A68BB
:1037F00010600020704701460868C06820F0010092
:103800000A68D06000BF0868006A41F211121040D7
:1038100050B90868006A9210104028B9086800681A
:1038200020F001000A68106000BF002070472DE9F9
:10383000F04104460D46002600BF94F83C000128E4
:1038400002D10220BDE8F081012084F83C0000BFD5
:10385000022084F83D002068866826F0770626F46A
:103860007F4620688660286850283BD00CDC2028E2
:1038700060D004DC002853D0102865D155E03028F2
:103880005DD0402860D141E0602835D070280DD04F
:10389000B0F5805F03D0B0F5005F55D115E020682A
:1038A000806820F00700216888604EE0D5E90213A7
:1038B0006A68206805F0A2F82068866826F0770616
:1038C00046F07706206886603FE0D5E902136A6813
:1038D000206805F093F82068806840F480402168F3
:1038E000886032E0EA686968206805F0ACF8502129
:1038F000206805F08FF828E0EA686968206805F01C
:10390000B7F86021206805F085F81EE0EA6869686C
:10391000206805F098F84021206805F07BF814E055
:103920000021206805F076F80FE01021206805F0EE
:1039300071F80AE02021206805F06CF805E03021DC
:10394000206805F067F800E000BF00BF012084F8A0
:103950003D0000BF002084F83C0000BF00BF71E7BD
:10396000704710B5044620680069C0F34000D8B124
:103970002068C068C0F34000B0B16FF00200216859
:103980000861012020772068806900F0030018B1E9
:103990002046FFF7E5FF05E0204600F0ADF82046A1
:1039A00000F0ABF80020207720680069C0F38000A9
:1039B000D8B12068C068C0F38000B0B16FF00400D7
:1039C00021680861022020772068806900F4407037
:1039D00018B12046FFF7C4FF05E0204600F08CF840
:1039E000204600F08AF80020207720680069C0F3A4
:1039F000C000D8B12068C068C0F3C000B0B16FF09B
:103A0000080021680861042020772068C06900F060
:103A1000030018B12046FFF7A3FF05E0204600F0A1
:103A20006BF8204600F069F80020207720680069D4
:103A3000C0F30010D8B12068C068C0F30010B0B166
:103A40006FF0100021680861082020772068C069A5
:103A500000F4407018B12046FFF782FF05E02046D1
:103A600000F04AF8204600F048F80020207720684F
:103A7000006900F0010058B12068C06800F0010042
:103A800030B16FF0010021680861204600F036F87F
:103A900020680069C0F3C01058B12068C068C0F346
:103AA000C01030B16FF08000216808612046FFF738
:103AB000EAFD20680069C0F3801058B12068C06832
:103AC000C0F3801030B16FF04000216808612046DB
:103AD00000F0CCF820680069C0F3401058B12068AD
:103AE000C068C0F3401030B16FF020002168086159
:103AF0002046FFF7C9FD10BD7047704770B50446FA
:103B00004248844217D16FF00100404909680861BA
:103B10003F4801780078401C3D4A1070282973D135
:103B2000002011460870002310223A4801683A48E4
:103B300009F0F4FE68E0394884423CD138480088F6
:103B400040F4004036490880002036490880801E35
:103B50003249096808613448006820F001003249A0
:103B600008603248007802284ED1C1013048FCF785
:103B700094FB304A4FF480712D4801F0B3FA0546AA
:103B8000032D07D10023042222480168224809F0AE
:103B9000C5FE0FE00D2D0DD127A005F005FA002080
:103BA0001F4908804FF480612948FCF776FB00200C
:103BB0001C49088028E02748844225D1264800680F
:103BC000C8B92648FCF786FB2549088008460288C4
:103BD00022492448FCF73AFB002308220D480168DB
:103BE0000D4809F09BFE2048006808B9012000E05C
:103BF00000201D4908600021204604F015FF6FF0E9
:103C0000010014490968086170BD0000CC0600205D
:103C1000D803002050010020F1C400084C07002008
:103C20007C0100207A01002000140040D90300200C
:103C3000B0620020A9C20008CAD5B5BD2050494EC7
:103C40004752455350206D6573736167650D0A00D7
:103C5000580C00200C070020140122421CE400082C
:103C6000D6030020B061002088812242704770474F
:103C70002DE9F0470446206805682068C66820687A
:103C800047694FF00008C14605F00F08B8F1000F72
:103C90000AD105F0200038B106F0200020B12046FE
:103CA00004F036FFBDE8F087B8F1000F6DD007F0E3
:103CB000010018B906F49070002866D005F00100E4
:103CC00030B106F4807018B1E06B40F00100E063A1
:103CD00005F0040030B107F0010018B1E06B40F0CE
:103CE0000200E06305F0020030B107F0010018B1F6
:103CF000E06B40F00400E06305F0080030B107F02D
:103D0000010018B1E06B40F00800E063E06B68B3BD
:103D100005F0200028B106F0200010B1204604F084
:103D2000F7FE20684069C0F38019E06B00F00800DE
:103D300010B9B9F1000F22D0204604F0C9FE206866
:103D4000406900F04000B0B12068406920F04000B8
:103D500021684861606B50B11748616B4863606BC4
:103D6000FDF788FE10B1606B416B88470CE0204680
:103D7000FFF77DFF08E02046FFF779FF04E02046CB
:103D8000FFF775FF0020E0638CE705F0800030B19D
:103D900006F0800018B1204604F0F2FF82E705F03B
:103DA000400030B106F0400018B1204604F0A0FEFB
:103DB00078E700BF76E70000BD8A000810B504462A
:103DC0000CB9012010BDA06900B100E000BF94F85B
:103DD000390028B9002084F83800204600F028F87F
:103DE000242084F839002068C06820F4005021683D
:103DF000C860204604F0E0FE2068006920F490408E
:103E0000216808612068406920F02A002168486123
:103E10002068C06840F400502168C8600020E0635A
:103E2000202084F8390084F83A000020CAE7000016
:103E300010B586B0044600200290039004900590CF
:103E40004649206888423DD100BF4548806940F41A
:103E50008040434988610846806900F480400190B1
:103E600000BF00BF00BF0846806940F004008861C1
:103E70000846806900F00400019000BF00BF4815AB
:103E80000290022003900320059002A93548FEF716
:103E900057F94FF48060029000200390049002A92B
:103EA0003048FEF74DF9002207212520FEF771FE6C
:103EB0002520FEF761FE2068C06840F020002168E0
:103EC000C86048E028492068884244D100BF24489F
:103ED000C06940F400302249C8610846C06900F456
:103EE0000030019000BF00BF00BF0846806940F06D
:103EF000040088610846806900F00400019000BF5A
:103F000000BF04200290022003900320059002A924
:103F10001448FEF715F90820029000200390049041
:103F200002A91048FEF70CF9002205212620FEF711
:103F300030FE2620FEF720FE2068C06840F02000FA
:103F40002168C8600020094908800948006820F0FD
:103F500001000749086006B010BD000000380140AC
:103F60000010024000080140004400407C01002095
:103F7000001400402DE9F84304460D4616461F463E
:103F80004FF0000994F83A00202860D105B116B925
:103F90000120BDE8F88300BF94F83800012801D162
:103FA0000220F6E7012084F8380000BF0020E0631B
:103FB000222084F83A00FEF769FA8146A685E68554
:103FC00039E0E08D401EE085A068B0F5805F1BD130
:103FD0004B46002220212046009704F005FF08B13F
:103FE0000320D6E7A846206938B920684068C0F3A6
:103FF0000800A8F80000AD1C1DE020684068C0B2B1
:10400000A8F800006D1C16E04B4600222021204637
:10401000009704F0E9FE08B10320BAE7206920B94F
:104020002068406805F8010B05E02068406800F052
:104030007F0005F8010BE08D0028C2D1202084F814
:104040003A0000BF002084F8380000BFA1E702203A
:104050009FE77047704700BFFEE7000010B50248B9
:10406000FEF71CFA10BD00009805002070B505464B
:104070006C6A2068006820F4806021680860002075
:104080006085616B4863A16B486394F83D006028CC
:1040900010D1202084F83D00002084F83E002064E8
:1040A0002068006820F00100216808602046FEF7C3
:1040B000F3F90EE0202084F83D00002084F83E0053
:1040C0002068006820F00100216808602046FEF7A3
:1040D000A1FA70BD70B505466C6A2068006820F4CE
:1040E00080602168086000206085202084F83D0001
:1040F000002084F83E00206C40F010002064204630
:10410000FEF788FA70BD2DE9F04105466C6A94F817
:104110003D6094F83E70212E03D0222E10D1202F26
:104120000ED12068406820F40060216848600020BB
:1041300060852068406840F440702168486033E042
:104140002068006820F480602168086020680068AA
:1041500040F40070216808602068406820F48050B6
:10416000216848602068406820F400602168486049
:1041700000206085206C18B12046FEF74BFA13E052
:10418000202084F83D0094F83E00402806D100200D
:1041900084F83E002046FEF715FB05E0002084F879
:1041A0003E002046FEF7F7FABDE8F08170B5044600
:1041B00094F83D50292D01D02A2D05D100202063EF
:1041C000282084F83D0011E094F83D00602809D0D3
:1041D0002068406800F40060B0F5006F02D0202035
:1041E00084F83D000020206384F83E0020680068C9
:1041F00020F40060216808602068406800F40060D6
:10420000B0F5006F40D12068406820F4006021685C
:104210004860606B90F82100012814D03D48616B24
:104220004863606BFDF726FC00285BD020680068BF
:1042300020F0010021680860202084F83D00606BB8
:10424000416B88474EE03348A16B4863A06BFDF794
:1042500011FC002846D020684069C0F3801030B1BE
:1042600020680069C1B2626A501C606211702068E7
:10427000006820F0010021680860202084F83D00DB
:10428000A06B416B88472DE094F83D0060281AD15F
:10429000202084F83D000020206420684069C0F39D
:1042A000801030B120680069C1B2626A501C60623F
:1042B00011702068006820F0010021680860204625
:1042C000FEF7EAF80EE020684069C0F3801030B1D4
:1042D00020680069C1B2626A501C60621170204699
:1042E000FEF798F994F83D00282811D1206C00F0D1
:1042F000040004280CD10848E0620020206320203C
:1043000084F83D00002084F83E002046FEF742FA83
:1043100070BD00006D4000080000FFFF0146086806
:104320004069C0F3802088B16FF480600A685061F2
:104330000420086400200863202081F83D0000BFAD
:10434000002081F83C0000BF012070470020FCE7FE
:1043500070B50446E56A608D032817D1042D04D09A
:10436000082D02D015F5803F05D12068006820F4A3
:1043700080602168086020680069C1B2626A501CD0
:1043800060621170608D401E608560E0608D022863
:1043900053D1042D1AD0082D18D015F5803F15D013
:1043A000022D06D02068006820F480602168086033
:1043B00005E02068006840F480602168086020689B
:1043C000406820F44070216848600BE02068406835
:1043D00020F44070216848602068006840F4007054
:1043E0002168086020680069C1B2626A501C60627E
:1043F0001170608D401E608520680069C1B2626ADC
:10440000501C60621170608D401E6085202084F811
:104410003D000020206394F83E00402806D1002093
:1044200084F83E002046FEF7CDF910E0002084F825
:104430003E002046FEF7AFF909E020680069C1B2EE
:10444000626A501C60621170608D401E60850020A1
:1044500070BD70B5044694F83D00222866D1002551
:10446000658D032D0AD920680069C1B2626A501CAB
:1044700060621170608D401E608556E0022D01D093
:10448000032D1CD1E06A02280CD02068006820F4BB
:104490008060216808602068006840F4006021683E
:1044A000086005E02068006840F4806021680860CA
:1044B0002068406820F480602168486035E0E06A48
:1044C000022806D02068006820F480602168086017
:1044D00005E02068006840F480602168086020687A
:1044E000406820F4E0602168486020680069C1B23B
:1044F000626A501C60621170608D401E60852020D1
:1045000084F83D000020206394F83E00402806D146
:10451000002084F83E002046FEF754F905E0002014
:1045200084F83E002046FEF736F900BF002070BD3B
:1045300070B50446E56A94F83D00212846D1608DA7
:1045400048B1616A481C6062087821680861608D22
:10455000401E60853AE0042D16D0082D14D015F5C4
:10456000803F11D02068406820F4E06021684860F6
:1045700011202063002084F83E00202084F83D00B4
:104580002046FEF709F921E02068406820F4E06049
:10459000216848602068006840F400702168086065
:1045A00000202063202084F83D0094F83E0040283D
:1045B00006D1002084F83E002046FEF717F905E0FA
:1045C000002084F83E002046FEF7E6F8002070BD8B
:1045D0002DE9F041044694F83D5094F83E70E66AA7
:1045E000208DB0BB212D3CD1042E16D0082E14D026
:1045F00016F5803F11D02068406820F4E060216803
:10460000486011202063002084F83E00202084F8B8
:104610003D002046FEF7C0F87CE02068406820F4AA
:10462000E060216848602068006840F400702168FC
:10463000086000202063202084F83D0094F83E00AC
:10464000402807D1002084F83E002046FEF7CEF82F
:1046500060E006E0002084F83E002046FEF79CF86B
:1046600058E0212D03D0402F54D1222D52D1608DFE
:1046700030B92068406820F480602168486049E0D3
:1046800094F83E0040283CD1206D98B9E06C012898
:1046900007D1A06CC0B221680861206D801C206524
:1046A00038E0A06CC0F3072021680861206D401C31
:1046B00020652FE0206D012807D1A06CC0B22168D1
:1046C0000861206D401C206524E0206D022821D166
:1046D00094F83D00222806D12068006840F48070DC
:1046E0002168086016E094F83D00212812D1616A23
:1046F000481C6062087821680861608D401E6085F2
:1047000008E0616A481C6062087821680861608D71
:10471000401E60850020BDE8F0810146486CC0B2B3
:104720000A6810610020704738B5014691F83E30A4
:10473000CA6A0C6B91F83D00222873D1086D60B9EC
:10474000402B0AD100BF002000900868406900900B
:1047500008688069009000BF07E1086DC0B908696A
:10476000B0F5404F14D100BF0020009008684069A8
:10477000009008688069009000BF00BF086800686A
:1047800040F480700D682860086D401C0865ECE0FE
:10479000488D88B900BF00200090086840690090EB
:1047A00008688069009000BF00BF0868006840F496
:1047B00000700D682860CAE0488D01286CD112F5A0
:1047C000803F30D10868006820F480600D68286060
:1047D0000868406800F40060B0F5006F10D1086808
:1047E000006820F480600D68286000BF0020009001
:1047F00008684069009008688069009000BFA6E0E2
:1048000000BF002000900868406900900868806937
:10481000009000BF00BF0868006840F400700D6899
:10482000286094E096E0042A1ED0082A1CD0122C9E
:104830001AD0C86A022806D00868006820F4806090
:104840000D68286005E00868006840F480600D6825
:10485000286000BF00200090086840690090086848
:104860008069009000BF72E00868006820F48060F2
:104870000D68286000BF0020009008684069009023
:1048800008688069009000BF00BF0868006840F4B5
:1048900000700D6828605AE0488D022839D1C86A36
:1048A000022817D00868006840F400600D6828608E
:1048B00000BF002000900868406900900868806987
:1048C000009000BF00BF0868006820F480600D6899
:1048D000286010E00868006840F480600D68286077
:1048E00000BF002000900868406900900868806957
:1048F000009000BF00BF0868406800F40060B0F599
:10490000006F24D10868406840F480500D686860EA
:104910001DE00868006840F480600D682860086841
:10492000406800F40060B0F5006F05D10868406889
:1049300040F480500D68686000BF00200090086857
:104940004069009008688069009000BF00BF0020A7
:1049500008650AE000BF00200090086840690090E8
:1049600008688069009000BF00BF002038BD014684
:1049700091F83E0040280ED1086D28B9486C00F02F
:10498000FE000A68106131E0486CC0B240F00100DE
:104990000A6810612AE00869B0F5804F10D191F8DB
:1049A0003D00212805D1486C00F0FE000A68106126
:1049B0001CE0486CC0B240F001000A68106115E0CC
:1049C000086D40B9486C00F44070F02242EAE010F3
:1049D0000A6810610AE0086D012807D1486C00F4EC
:1049E0004070F12242EAE0100A681061002070472E
:1049F0002DE9F8430446884615469946DDE90867DF
:104A00002068006840F48070216808603346002206
:104A10004FF001112046009700F062F910B1032019
:104A2000BDE8F88308F0FE00216808613B46324685
:104A30002649204600F092F930B1206C042801D1BB
:104A40000120EDE70320EBE700BF00200090206885
:104A50004069009020688069009000BF00BF3A461E
:104A60003146204600F0D0F960B1206C042807D10F
:104A70002068006840F40070216808600120CFE7DA
:104A80000320CDE7B9F1010F03D1E8B22168086135
:104A900019E0C5F30720216808613A4631462046EF
:104AA00000F0B2F960B1206C042807D120680068DA
:104AB00040F40070216808600120B1E70320AFE7EF
:104AC000E8B2216808610020AAE7000002000100A6
:104AD0000146488D48B108680069C2B24B6A581C4B
:104AE00048621A70488D401E48850020704770B596
:104AF000044694F83D50608DD8B120680069C1B279
:104B0000626A501C60621170608D401E6085608D0D
:104B100078B92A2D0DD12068406820F48060216882
:104B2000486022202063282084F83D002046FDF7BD
:104B3000ADFF002070BD0146488D40B14A6A501C4F
:104B4000486210780A681061488D401E4885002030
:104B5000704770B5044694F83D50608DD0B1616ADD
:104B6000481C6062087821680861608D401E60857D
:104B7000608D78B9292D0DD12068406820F48060BF
:104B80002168486021202063282084F83D002046C9
:104B9000FDF77DFF002070BD70B50446002500269E
:104BA00020688069C0F3800000B901252068806911
:104BB000C0F3C01010B9A08986B201E0208B86B284
:104BC000324629462046FDF768FC002070BD0000F3
:104BD00038B5044694F83D502068406820F4E06001
:104BE0002168486000BF0020009020684069009064
:104BF0002068006840F001002168086000BF00BF25
:104C00002068006820F4806021680860206840689F
:104C100000F40060B0F5006F10D194F83D00222838
:104C200003D094F83D002A2804D1A06B00684068A6
:104C3000608503E0606B006840686085608D08B344
:104C400020684069C0F3800048B120680069C1B2A3
:104C5000626A501C60621170608D401E6085206821
:104C60004069C0F3801048B120680069C1B2626A2F
:104C7000501C60621170608D401E6085206C40F099
:104C800004002064206C18B12046FFF78FFA23E05F
:104C9000282D03D02A2D01D0292D0DD10F48E062F7
:104CA00000202063202084F83D00002084F83E008E
:104CB0002046FDF76FFD0FE0206B222801D0222D4A
:104CC0000AD100202063202084F83D00002084F8D1
:104CD0003E002046FDF7DAFE002038BD0000FFFF51
:104CE0002DE9F04104460D4617461E46DDF81880B2
:104CF00017E0701CA8B12EB1FDF7C8FBA0EB0800AF
:104D0000B0420ED900202063202084F83D0000200E
:104D100084F83E0000BF84F83C0000BF0320BDE8DB
:104D2000F081C5F3074001280AD120684069A9B283
:104D30000840A9B2884201D101200BE0002009E01F
:104D400020688069A9B20840A9B2884201D1012037
:104D500000E00020B842CCD00020E0E72DE9F0418F
:104D600004460D4616461F4631E020684069C0F3F0
:104D70008020C0B12068006840F40070216808609D
:104D80006FF4806021684861042020640020206363
:104D9000202084F83D0000BF002084F83C0000BFC4
:104DA0000120BDE8F081701C88B126B1FDF76EFBD3
:104DB000C01BB0420BD900202063202084F83D00A6
:104DC00000BF002084F83C0000BF0320E9E7C5F3E2
:104DD000074001280AD120684069A9B20840A9B259
:104DE000884201D101200BE0002009E020688069A1
:104DF000A9B20840A9B2884201D1012000E00020F8
:104E00000028B2D00020CCE770B504460D46164607
:104E10001DE02046FFF782FA08B1012070BD681C32
:104E2000A8B125B1FDF732FB801BA8420FD9206C39
:104E300040F02000206400202063202084F83D0002
:104E400000BF002084F83C0000BF0320E6E7206894
:104E50004069C0F3C0100028DBD00020DEE72DE958
:104E6000FF4704460D4616469946002003900296D9
:104E700000278046009002A807F064F88DF80C0027
:104E80000398C0F30310022800D01FE001A9029884
:104E900000F0EAF88046029908440290DDE901102A
:104EA00047180298381A022800DA0FE002A807F023
:104EB00049F88DF80000009800F00100207002A869
:104EC00007F040F828704FF0010800BF404604B0DA
:104ED000BDE8F0872DE9FF5F06460C461746984669
:104EE000DDE90FABDDF838900020039011980290B7
:104EF000002500200190009002A807F023F88DF80B
:104F00000C000398C0F30310032800D032E003988C
:104F1000C0F3C00030700398C0F3410020600398D4
:104F200000F0010038706946029800F09DF8019089
:104F30000299084402900099029845182A4602A94D
:104F4000484607F013F810B10298281A00D511E06E
:104F50002068002804DD02A806F0FBFFA8F8000086
:104F60000298281ACBF800000298CAF80000012025
:104F7000019000BF019804B0BDE8F09F2DE9FE4FFD
:104F800005460E4614461F46DDE90C9B00200290A4
:104F9000CDF804908046824601A806F0D3FF8DF834
:104FA00008000298C0F30310092800D02CE06946DD
:104FB000019800F059F88246019908440190DDE912
:104FC000001000EB01080198A8EB0000022800DAAD
:104FD0001AE001A806F0BDFF2880002020600DE047
:104FE0002068B04202DD4FF0FF3A0DE001A806F064
:104FF000A9FF2268511C216047F822000198404512
:10500000EED34FF0010A00BF5046BDE8FE8F2DE9F8
:10501000F84305460C46012600270020206000BF0B
:105020004FF0FF38781C0746042801DD00BF17E069
:1050300001216846A8478046B8F1010F00D00FE073
:105040009DF8001001F07F01206801FB0600206040
:10505000F6019DF8000000F080000028E0D100BFBC
:105060003846BDE8F883000070B504460D46034895
:10507000046029460248FFF7CAFF70BDDC03002028
:10508000F199000830B50246002300BF0846CD174D
:1050900001EB5565ED11A1EBC515ECB2CD1701EB98
:1050A0005565E911002901DD44F0800418465B1CB8
:1050B00014540029EADC184630BD0000401C80284A
:1050C00001DA401C0AE0B0F5804F01DA801C05E0EF
:1050D0000349884201DAC01C00E0001D704700004F
:1050E000FFFF1F002DE9FC4104460F4615464FF017
:1050F000FF38002001900026009001212046A8479B
:10510000012800D01EE0012669462846FFF77FFFF0
:10511000601C0099FFF7B6FF064400983044B8427F
:1051200000DD0FE0009830B1A0190099A847009960
:10513000884200D006E020788DF804000198C0F382
:10514000031800BF4046BDE8FC8100002DE9FE4386
:1051500005460E4614460295002001900090002757
:105160004FF0FF38204600F0A5F807468146FFF7CC
:10517000A5FFB04202DD6FF001088FE000208DF83E
:105180000400019820F0F000103001909DF8041008
:1051900002A807F091FC39460298FFF773FF0299C5
:1051A00008440290207A042808D13EA102A807F002
:1051B0006FFC042102A807F07FFC07E03BA102A8D6
:1051C00007F066FC032102A807F076FC00208DF8AA
:1051D0000000A17E009861F341000090E07E08B1DC
:1051E000012100E00021009861F382000090009806
:1051F000C0F3800058B194F83D10009861F3C400EA
:10520000009094F83C10009861F345100090206CD9
:1052100008B9A06C20B1009820F080008030009088
:10522000E06C08B9606D20B1009820F0400040307B
:1052300000909DF8001002A807F03EFC218B02A808
:1052400007F040FC02A8D4E90423E16807F052FC0F
:10525000E07E58B102A8D4E90A23616A07F04AFC4B
:1052600002A8D4E90D23216B07F044FC0098C0F399
:10527000C01028B102A8D4E91123216C07F03AFC30
:105280000098C0F3801028B102A8D4E91423E16C7F
:1052900007F030FC0298A0EB050800BF4046BDE8CF
:1052A000FE8300004D515454000000004D514973DD
:1052B0006470000070B504460025207A032801D1EF
:1052C0000C2503E0207A042800D10A25D4E9041231
:1052D000E06800F027FB801C0544E07E68B1D4E95B
:1052E0000A12606A00F01EFB861CD4E90D12206BC6
:1052F00000F018FB3044801C0544206C08B9A06CF9
:1053000030B1D4E91112206C00F00CFB801C054474
:10531000E06C08B9606D30B1D4E91412E06C00F0B3
:1053200001FB801C0544284670BD70B504460D463F
:105330000C222946204600F0D8F870BD2DE9F04F28
:1053400087B005460F4690461C46DDE915B6DDE9F7
:10535000109A069500200590049003900096204630
:1053600012A90EC900F042F804900290FFF7A6FEC1
:10537000B84203DD6FF00100039033E0059820F0A0
:10538000F00030300590059868F3C300059005984B
:1053900064F342000590059869F3000005909DF8BC
:1053A000141006A807F088FB04990698FFF76AFE18
:1053B00006990844069006A812A90EC907F09AFBA0
:1053C000002C03DD514606A807F07CFB3246594607
:1053D0000698FAF73BFF0698304406900698401B63
:1053E000039000BF039807B0BDE8F08F7FB5054676
:1053F000089E002401A807C800F094FA801C3044DD
:105400000444002D00DDA41C204604B070BD2DE92D
:10541000FF5F05460E4617469846DDE90E9A03954E
:10542000002002900190009000245146484600F070
:1054300045F883460190FFF741FEB04202DDA01E11
:10544000009037E000208DF80800029820F0F0006E
:1054500080300290029867F3C3000290029820F017
:105460000600801C02909DF8081003A807F024FB9A
:1054700001990398FFF706FE0399084403904146FB
:1054800003A807F01FFB00240EE004EB44000AEB26
:10549000800C03A89CE80E0007F02CFB1098015D1F
:1054A00003A807F009FB641C4C45EEDB0398401B86
:1054B000009000BF009804B0BDE8F09F2DE9F041D6
:1054C00005460E46022700240AE004EB440006EBE2
:1054D000800393E8070000F025FAC01C0744641C11
:1054E000AC42F2DB3846BDE8F0812DE9FC410446D0
:1054F0000D46164600200190471E0094022D01DA49
:10550000871E15E000208DF80400019866F307104F
:1055100001909DF80410684607F0CEFA002100982B
:10552000FFF7B0FD0099084400900098071B00BFEA
:105530003846BDE8FC8100002DE9F04F99B00646E1
:105540000F4690469946DDE922BA58223C4902A806
:10555000FAF77CFE3B480078032806D03AA003F017
:1055600023FD012019B0BDE8F08F3648407820B106
:1055700043A003F019FD0220F4E7C82005F076FCF3
:105580001890C82421461898FAF787FE05968DF8DA
:105590002270CDF84880CDF85490ADF820B002AA22
:1055A00021461898FFF7D2FDC4B222460020189970
:1055B00006F09AFE20E03D48008800F40040C0B1AB
:1055C0003B4A21461898FFF78DFD02280ED123464D
:1055D000694601A8189AFFF742FC012806D19DF8F8
:1055E000000018B933A003F0DFFC0BE000202F49C6
:1055F00008800A20FCF772FDAAF10100C0B2B0F1E8
:10560000000AD8D100BFBAF1000F04D131A003F0D5
:10561000CBFC03250FE000203449087002213448F8
:10562000006807F0C1FA0121324803F0FDF90020BB
:105630001E4908800025189805F0C6FB284691E70A
:10564000DCE10008B803002054435020636F6E6E05
:10565000656374696F6E206973206E65636573732B
:10566000617279206265666F7265204D51545420D5
:10567000636F6E6E656374696F6E0D0A00000000E3
:105680005472616E73706172656E742D5472616EC6
:1056900073706F7274206D6F6465206E6565642031
:1056A000746F206265207365740D0A007C01002010
:1056B000A9C20008436F6E6E656374204D51545447
:1056C000207375636365737366756C6C79210D0A5D
:1056D0000D0A0000636F6E6E656374204D51545463
:1056E0002074696D656F75740D0A0000D903002080
:1056F00050010020CC0600202DE9F04F8DB004466B
:105700000D4616464FF00008C146C246C34601206A
:105710000B900020089009900A9018480078012802
:1057200002D10DB0BDE8F08F0894C82005F09EFBB3
:105730000C90C82739460C98FAF7AFFDCDE905560D
:1057400008A807C802AB07C30B9853464A46394618
:10575000CDE900B00C98FFF7F1FDC7B23A46002042
:105760000C9906F0C1FD2246294605A003F01CFC59
:105770000C9805F029FB4046D3E70000D903002030
:105780007075626C6973682061206D73673A2025BB
:1057900073200D0A696E20746F7069633A20257357
:1057A0000D0A00002DE9F74F8AB083461546002701
:1057B000B9464FF001084FF0010A00200790089009
:1057C00009903A480078012802D10DB0BDE8F08F69
:1057D00037A00790C82005F049FB0446C82631468B
:1057E0002046FAF75AFD0BA807A943464A46CDE9D9
:1057F00000A1029031462046FFF709FEC6B23246AC
:105800002146002006F070FD4FF0FF3004903CE090
:105810002B48008800F40040002833D0294A314644
:105820002046FFF75FFC092827D104AB05AA012118
:1058300006A8CDE90046FFF7A1FB01281DD19DF880
:105840002C100498884206D1BDF81800404502D1BA
:105850000598012804D01CA003F0A6FB04270CE047
:1058600022A0079903F0A0FB022010490870002035
:1058700024490880124908800BE000201049088064
:10588000204908800A20FCF729FC681EC0B2051ECA
:10589000BED100BF27B91DB91BA003F085FB0327AC
:1058A000204605F091FA38468FE70000D903002022
:1058B000676174657761792F312F636D6400000033
:1058C0007C010020A9C20008696C6C6567616C20CE
:1058D000706172616D74657220696E20535542412A
:1058E000434B206D736720210D0A0000B3C9B9A690
:1058F000B6A9D4C420546F706963203D2025730D70
:105900000A0D0A007A01002073756273637269627E
:105910006520746F7069632074696D656F75740DAF
:105920000A00000037B50024009820B10098FAF76B
:10593000D1FC044600E0019C20463EBD08B500BFF6
:105940000E48406940F001000C4948610846406932
:1059500000F00100009000BF00BF002205211020D0
:10596000FDF717F91020FDF707F900220521112096
:10597000FDF70FF91120FDF7FFF808BD00100240F8
:1059800000B597B007F003F9294908602948006875
:1059900016900022114616A805F0B4FA26490860B0
:1059A0002448001D006815900022114615A805F036
:1059B000A9FA224908601F480830006814900022A4
:1059C000114614A805F09EFA1D49086014221949D1
:1059D0000C310FA8FAF73AFC00210FA805F079FA6C
:1059E000184908601422134920310AA8FAF72EFC3E
:1059F00000210AA805F06DFA1349086014220D4928
:105A0000343105A8FAF722FC002105A805F061FA57
:105A10000E4908601422074948316846FAF716FC17
:105A20000021684605F055FA0949086017B000BD25
:105A30005001002050D900086401002068010020B6
:105A40006C01002054010020580100205C0100205E
:105A50006001002000B585B0002001900290039005
:105A6000049000BF5848806940F020005649886182
:105A70000846806900F02000009000BF00BF00BF12
:105A80000846806940F0100088610846806900F08F
:105A90001000009000BF00BF00BF0846806940F0C2
:105AA000040088610846806900F00400009000BF8F
:105AB00000BF00BF0846806940F0080088610846C2
:105AC000806900F00800009000BF00BF00224FF482
:105AD00088713E48FCF7D4FC002210213C48FCF7BA
